:020000040800F2
:1000000068280020C9010008B7480008A14000087E
:10001000B548000801040008C74E000800000000B1
:10002000000000000000000000000000BB480008C5
:100030001B04000800000000B9480008BD48000883
:10004000E3010008E3010008E3010008E301000800
:10005000E3010008E3010008E3010008E3010008F0
:10006000E3010008E3010008E3010008E3010008E0
:10007000E3010008E3010008030400080F0400087E
:10008000E3010008E30100087F020008E301000823
:10009000E3010008E3010008E3010008E3010008B0
:1000A000E3010008E3010008E30100088B490008B0
:1000B000E3010008E3010008E3010008AF40000885
:1000C000A3400008E3010008E3010008E301000881
:1000D000E3010008BB4E0008E3010008E30100084B
:1000E000E3010008E3010008E301000800F002F862
:1000F00000F05AF80AA090E8000C82448344AAF168
:100100000107DA4501D100F04FF8AFF2090EBAE865
:100110000F0013F0010F18BFFB1A43F0010318473B
:1001200068860000888600000A444FF0000C10F832
:10013000013B13F0070408BF10F8014B1D1108BF65
:1001400010F8015B641E05D010F8016B641E01F805
:10015000016BF9D113F0080F1EBF10F8014BAD1C55
:100160000C1B09D16D1E58BF01F801CBFAD505E073
:1001700014F8016B01F8016B6D1EF9D59142D6D3CD
:10018000704700000023002400250026103A28BFF5
:1001900078C1FBD8520728BF30C148BF0B607047F9
:1001A0001FB51FBD10B510BD00F02FF81146FFF7A9
:1001B000F7FF07F088F900F04DF803B4FFF7F2FFFE
:1001C00003BC00F055F80000094880470948004783
:1001D000FEE7FEE7FEE7FEE7FEE7FEE7FEE7FEE7F7
:1001E000FEE7FEE704480549034A054B7047000057
:1001F00089490008ED0000086824002068280020D4
:1002000068240020704770477047754600F02CF84E
:10021000AE4605006946534620F00700854618B0F3
:1002200020B5FFF7DFFFBDE820404FF000064FF09C
:1002300000074FF000084FF0000B21F00701AC461B
:10024000ACE8C009ACE8C009ACE8C009ACE8C0093A
:100250008D46704710B50446AFF300802046BDE8D8
:100260001040FFF7AABF0000004870470824002094
:1002700001491820ABBEFEE726000200704710B50A
:1002800040F2D470C2F2000001684A6822F0800295
:100290004A600168CA6B42F26C00C2F20000026060
:1002A0000A6C42604A6C8260896CC16040F604014D
:1002B000C2F200010968CA6B02610A6C4261496CB2
:1002C0008161014642F22420C2F2000005F0B8F933
:1002D00006F090F9BDE8104005F050BA70B504463C
:1002E0000068816811F0010F25D0816821F00101BB
:1002F000816001F00AFC05462068806810F0010F5B
:1003000019D000BF01F001FC401B02280ED9206863
:10031000806810F0010F09D0A06A40F01000A062C0
:10032000E06A40F00100E062012070BD2068806852
:1003300010F0010FE6D1002070BD000070B582B052
:100340000026044601960068816811F0010F42D131
:10035000816841F00101816040F20C00C2F20000AE
:10036000006844F24021C0F20F01B0FBF1F00190AF
:100370000090C0B1B0F1004F3DD20028D8BF00209E
:1003800005DD10F0010002D00199491E019100998C
:10039000401C491C884206DA019A801C521E521EDB
:1003A00001928842F8DB01F0B0FB054620688068C6
:1003B00010F0010F0FD100BF01F0A7FB401B022876
:1003C00004D92068806810F0010F07D02068806889
:1003D00010F0010FF0D002B0002070BDA06A40F014
:1003E0001000A062E06A40F00100E06284F824603E
:1003F00002B0012070BD0198401E0190FCD1D2E7EF
:10040000FEE740F65C10C2F2000001F042B940F68F
:100410001810C2F2000001F03CB9704705F0F5FC7D
:10042000AE2248F20831C0F6000148F21870C0F65A
:10043000000006F083FA72B6FEE738B4044640F2D4
:100440002030C2F20000C08898B14B1E8C460320B9
:100450000DF1FF3102225D784D7013F8025F01F853
:10046000025F521EF7D10099216038BC6044401CE5
:100470007047087860F30702481C10F8011B61F30D
:100480000F2291B2216038BC704740F22030C2F296
:100490000000806AB0F9000040F24C31C2F2000165
:1004A000B1F900108842ACBF01200020704740F233
:1004B0002030C2F20000806A008840F24C31C2F263
:1004C0000001098888422CBF01200020704740F2BB
:1004D0002030C2F20000806A006840F24C31C2F263
:1004E000000109688842ACBF01200020704740F23B
:1004F0002030C2F20000806A006840F24C31C2F243
:100500000001096888422CBF01200020704740F29A
:100510002030C2F20000806A90F9000040F24C31B5
:10052000C2F2000191F900108842ACBF0120002006
:10053000704740F22030C2F20000806A007840F23A
:100540004C31C2F20001097888422CBF0120002002
:10055000704740F24431C2F200010A6812F0010F04
:1005600008BF882105D0096811F0020F18BF872144
:1005700002D000F8011B704738B4002100F8011BBD
:1005800040F22034C2F20004E288216B8AB100916B
:10059000411E4FF0030C0DF1FF3302225D784D70C8
:1005A00013F8025F01F8025F521EF7D16044401C4D
:1005B00004E000F8011B090A00F8011BE18900F8BA
:1005C000011B090A00F8011B38BC7047F8B5002769
:1005D00006F0D4FC002818BF022706F011FD002801
:1005E00018BF47F0010740F25834C2F200042068F7
:1005F0004FF0000610F0010FA4F1380531D017F0CC
:10060000010F25D0E88AD0B1E86B0678304606F0B5
:10061000DEFC2B2E01BF206810F0040F206840F094
:1006200004000AD0E88AA0F10100E882E86B00F13A
:100630000100E863206820F00400206008E02E83B9
:10064000206820F001002060206820F00200206077
:1006500017F0020F08BFF8BD06F0A1FCADF80000CE
:10066000F8BD17F0020F08BFF8BD06F098FC2B2864
:100670000BD1216811F0080F04BF206840F008007A
:100680001AD0216821F008012160216811F0080FBB
:1006900041F6F871C2F200011AD001F8010B296489
:1006A0006871C0212E83814308D0206840F010007B
:1006B0002060206820F008002060F8BD216821F04B
:1006C00010012160062101EAD000401C2883F0E7D8
:1006D000226812F0100F05D0821C2A83226822F0B3
:1006E000100222602B8B002B08BFF8BD6A795B1EBD
:1006F0000244D2B21B046A711B0C2B830FD0296CED
:10070000002908BFF8BD42F23802C2F2000291424D
:1007100024BF2E64F8BD01F8010B2964F8BD286CD4
:1007200038B3D2B38220087041F6F870C2F20000EC
:10073000012300211A46E86310F801CB521E6144E0
:10074000C9B212F0FF02F7D1C943491C0170581C0D
:10075000E882206840F001002060206820F002005C
:100760002060206820F0040020602B2006F02FFC81
:10077000F8BD8320087041F6F870C2F20000012332
:1007800000211A46C5F83C0010F801CB521E614406
:10079000C9B212F0FF02F7D1D6E7FFE741F6F870D1
:1007A000C2F20000BDE8F840AFF300802DE9F84F39
:1007B0000446002040F22037C2F20007F88020787B
:1007C000002241F6E879C2F20009A9F1200A0A28BC
:1007D00004BF0120F88057D007DC0A2820D248F255
:1007E000A871C0F60001D1E800F040F24431C2F235
:1007F0000001C22800F0DD800BDC0B2804BF0120C3
:10080000F88000F0F980C02800F08F81C1287DD0E9
:1008100006E0C3287BD0C5285ED0C92800F0F08050
:100820008120207000F0DCB80120F880A11C254652
:1008300011F8016B6846FFF700FE402E03D98420B3
:1008400005F8010B1EE0002005F8010B731E00984F
:10085000002E17DD411E681E13F0010F03D111F8A1
:10086000012F00F8012F5A1C521009D091F801C035
:1008700080F801C011F802CF00F802CF521EF5D166
:10088000E818451C2846C0E0A01C3A7110F8016B1E
:100890000EB1082E03D985212170601CB5E000251A
:1008A000002E16D910F8018B014629F815800AEBA5
:1008B0008500FFF7C2FDB8F1000F02D0B8F1080FB4
:1008C00003D986212170601C9FE0691CCDB2AE4225
:1008D000E8D83E7120468BE03D792046002D41D07E
:1008E0004FF00001017004F101008C464AD9034623
:1008F00039F81C005AF82C10A0F1010600281BDD65
:10090000581E491E16F0010F06D101E02EE01BE033
:1009100011F8012F00F8012F721C52100AD000BFED
:1009200091F8018080F8018011F8028F00F8028FA1
:10093000521EF5D19819431C0CF1010101F0FF0C76
:100940001846AC45D3D360E00A68204612F0010F88
:1009500008D0096811F0020F0CBF022101210170BB
:10096000601C52E088210170601C4EE00B6820463C
:1009700013F0010F32D00B6813F0020F03D00121E6
:100980000170601C41E03B6BFB61FA813A820B68AD
:1009900023F004030B600B6823F010030B600B685B
:1009A00043F008030B600B6843F002030B60027016
:1009B00016E00A68204612F0010F0FD00A6812F004
:1009C000020F08BF02210AD00A6812F0040F09D0F2
:1009D0000EE011E069E047E069E047E0882101703E
:1009E000601C12E00A6842F004020A607989798288
:1009F00000210170601C08E0204600F06BF904E063
:100A00000120F8802046FFF7A4FDA04208BFBDE802
:100A1000F88F001B0104090C4FF00000FC6318BFA5
:100A2000CAB207D014F8013B521E1844C0B212F0EB
:100A3000FF02F7D1C043401C2070481CF88240F2EE
:100A40005830C2F20000016841F001010160016804
:100A500021F002010160016821F0040101602B20F6
:100A600006F0B5FABDE8F88F0120F880A11C6846B1
:100A700011F8015BFFF7E1FC691E009A002D52DDC1
:100A8000531E401E11F0010F03D110F8012F03F87F
:100A9000012F491C4A1046D04178597010F8021FA6
:100AA00003F8021F521EF7D13DE00120F880A11C7F
:100AB000684611F8015BFFF7C0FC4219691EDDF8BA
:100AC00000C0002D2FDD431E521EACF1010011F0BD
:100AD000010F0DD113F8015F12F801CF10F8016F6B
:100AE00005EA0C0526EA0C0C45EA0C0C80F800C05F
:100AF000491C5FEA610C16D05D78517810F8016FDF
:100B00000D4026EA0101294300F8011B13F8025F9A
:100B100012F8021F06780D4026EA010129430170F0
:100B2000BCF1010CE8D1204662E700212170601C75
:100B3000032100F8011B002100F8011B012100F82E
:100B4000011B022100F8011B002100F8011B4021BC
:100B500000F8011B4FF47A6100F8011B090A00F844
:100B6000011B322100F8011B802100F8011B48F213
:100B70006471C0F6000119230A7800F8012B0A7885
:100B8000002A18BF491C5B1EF6D13EE72DE9F05F35
:100B900040F2443EC2F2000EDEF8000010F0020FF8
:100BA00008BFBDE8F09F40F22035C2F20005288A58
:100BB00000281EBF401E2882BDE8F09FA889288219
:100BC00068784FF0000C002882BF41F2180AC2F288
:100BD000000AAAF1200B2FD93AF81C705BF82C9070
:100BE0007B1ED5F81C80002B16DDA9F10100A8F1B1
:100BF000010113F0010F03D010F8012F01F8012FAC
:100C000044785A1008D000BF10F8026F4C70447836
:100C100001F8026F521EF7D1002BA4BF19F8030090
:100C200008F80300E8693844E8610CF1010000F0BD
:100C3000FF0C68788445CFD3E889401CE881D5E96A
:100C40000701884209D3286BE861DEF8000020F034
:100C50000800CEF800000020E881DEF800007446AD
:100C600010F0080F18BFBDE8F09F206810F0040FC7
:100C700015D1686B98B180472978022909D050B105
:100C8000206810F0100F0AD0206810F0040F19D05F
:100C900005E00028F4D0206840F0100020602068B3
:100CA00010F0040F08BFBDE8F09F688A00281EBF3F
:100CB000401E6882BDE8F09F206820F0020020609E
:100CC000BDE8F09F206840F00400206068896882D9
:100CD000E5E700002DE9F04F04464FF0000B40F22D
:100CE0004431C2F20001A1F800B04FF47A6140F241
:100CF0002038C2F20008A8F8141041F22801C2F20C
:100D00000001801CC8F83010424610F8011B117019
:100D100002F1080110F8012B0A7010F8012B4A703B
:100D2000891C10F8012B0A7010F8012B4A70891CDD
:100D300010F8012B0A7010F8012B4A70014608F1D7
:100D40002800FFF77AFB08F1020210F8011B11706E
:100D500010F8011B521C03461170411E02F12800BD
:100D60004FF0030C02224D78457011F8025F00F835
:100D7000025F521EF7D103EB0C00417840F22132A2
:100D8000C2F200021170801C09B1082904D9852122
:100D90002170601CBDE8F08F00273D46002982BF0E
:100DA00041F21809C2F20009A9F1200A14D900BFC2
:100DB00010F8016B0146B81987B229F815600AEBE3
:100DC0008500FFF73AFB5EB3082E29D8691CCDB227
:100DD00098F80110A942EBD8C8F834B098F8000090
:100DE000B0B198F80200012804D002281DD00428D0
:100DF00028D015E098F80300002819BF40F20F50E2
:100E0000C0F6000040F23350C0F60000C8F83400CD
:100E1000B8F80800B8F81410784380B288421ED998
:100E200086212170601CBDE8F08F98F8030000282F
:100E300019BF40F28B40C0F6000040F2AF40C0F650
:100E40000000E3E798F80300002819BF40F2CF4004
:100E5000C0F6000040F2EF40C0F60000D6E7D8F838
:100E600030100844C8F8200040F24430C2F20000BC
:100E7000016841F00101016000212170601CBDE8A2
:100E8000F08F0000F0B583B000250446029590F87D
:100E90002400012802BF022003B0F0BD012084F825
:100EA00024002046FFF71AFA2046FFF747FA07000A
:100EB00076D1A06A20F4885040F00200A06202209F
:100EC00001F014FD40F20C01C2F200010968B1FB0F
:100ED000F0F040000290009018D0B0F1004F64D2C2
:100EE0000028D8BF002005DD10F0010002D00299D3
:100EF000491E02910099401C491C884206DA029A58
:100F0000801C521E521E02928842F8DB20688168C3
:100F100041F00801816000F0F8FD06462068806815
:100F200010F0080F0FD000BF00F0EFFD801B0A2863
:100F300004D92068806810F0080F1BD120688068F1
:100F400010F0080FF0D12068816841F00401816041
:100F500000F0DBFD06462068806810F0040F19D011
:100F600000F0D3FD801B0A280FD92068806810F09C
:100F7000040F0AD0A06A20F0020040F01000A06226
:100F800084F8245003B00120F0BD2068806810F080
:100F9000040FE5D1A06A20F0020040F00100A06239
:100FA00084F8245003B03846F0BD0298401E0290E9
:100FB000FCD1ABE770B483B00022029290F82430E9
:100FC0001446012B01BF022003B070BC70470123FF
:100FD00080F824308368FBB1D1F804C00B691F2569
:100FE0009C452DD81E05A3EB0C03C3F10303D1F8D8
:100FF00000C003EB83030CFA03FC05FA03F343F48C
:1010000040150368A6F5801646EA0C0C9E6B26EA8E
:1010100005054CEA050C21E04B68012B05D0826ADE
:1010200042F02002826201221AE00368D3F838C03D
:101030000D686FF3150C4CEAC53CC3F838C00FE0DF
:10104000A3EB0C03C3F1030303EB830305FA03F3E0
:1010500043F4401C03689D6B25EA0C0CC3F838C0B0
:101060000368D3F808C01CF0010F0AD1D3F808C0F8
:101070008D692CF0010C2CF4E04C4CEA050CC3F803
:1010800008C04B7D012B08D18B69B3F5E04F08D028
:10109000826A42F02002826201220B7D012B08D07D
:1010A0000EE00368D3F804C04CF4806CC3F804C0AD
:1010B000F3E74B7DCBB1826A42F0200282620122CB
:1010C0000B6805684FF0070C0A2B16D3EE680A3B35
:1010D00003EB43030CFA03FC26EA0C0C8E6806FAB9
:1010E00003F34CEA0303EB6014E00368D3F804C095
:1010F0004CF4805CC3F804C0E2E72E6903EB4303C1
:101100000CFA03FC26EA0C0C8E6806FA03F34CEA90
:1011100003032B610B68102B18BF112B06D103683A
:10112000D3F808C04CF4000CC3F808C04B68012B7E
:1011300013D0022B1CD0032B036824D0D3F820C07B
:10114000CD686FF30B0C4CEA050CC3F820C00B689C
:10115000102B18BF112B20D02AE00368D3F814C03D
:10116000CD686FF30B0C4CEA050CC3F814C0EEE726
:101170000368D3F818C0CD686FF30B0C4CEA050C6C
:10118000C3F818C0E3E7D3F81CC0CD686FF30B0CAD
:101190004CEA050CC3F81CC0D9E70368A3F1804CE6
:1011A000BCF5923C0AD0816A41F0200181620122A3
:1011B00080F8244003B0104670BC7047D3F808C0D4
:1011C0001CF4000FF4D1D3F808C04CF4000CC3F8A1
:1011D00008C009681029EBD140F20C01C2F20001ED
:1011E000096844F24023C0F20F03B1FBF3F101EBB5
:1011F0008101490002910091DAD0B1F1004F1BD278
:101200000029D8BF002105DD11F0010102D0029BA9
:101210005B1E0293009B491C5B1C9942C8DA00BF0D
:10122000DDF808C0891CACF1010CACF1010CCDF863
:1012300008C09942F4DBBBE70299491E0291FCD138
:10124000B6E770B5044690F82400012804BF0220D8
:1012500070BD012084F824002046FFF76FF80100DC
:101260004FF0000018BF84F8240001D0084670BD7C
:10127000A26A22F0010222F4005242F48052A262D9
:101280004FF42052D4F800C0C4F2010242F20443E9
:10129000C4F20103944521D11D6815F4702F1CBFC1
:1012A000A56A45F4801519D0A562A56A15F4807F5A
:1012B00008BFE06284F824006FF00400CCF800005E
:1012C0002068D0F804C01CF4806FCFD1D0F808C0DB
:1012D0004FF4E04434EA0C0C0AD103E0A56A25F48B
:1012E0008015E1E7904208D11A6812F4702F04D0FB
:1012F000826842F400428260B8E7826842F40212D7
:10130000F9E770B5044690F82400012804BF0220D4
:1013100070BD012084F824002046FFF70FF801007B
:101320004FF0000018BF84F8240001D0084670BDBB
:10133000A26A22F0010222F4005242F48052A26218
:101340004FF42052D4F800C0C4F2010242F2044328
:10135000C4F20103944528D11D6815F4702F1CBFF9
:10136000A56A45F4801520D0A562A56A15F4807F92
:1013700008BFE06284F824006FF00400CCF800009D
:101380002068D0F804C04CF0800CC0F804C020687D
:10139000D0F804C01CF4806FC8D1D0F808C04FF456
:1013A000E04434EA0C0C0AD103E0A56A25F4801568
:1013B000DAE7904208D11A6812F4702F04D08268DC
:1013C00042F400428260B1E7826842F40212F9E717
:1013D0002DE9F0414FF0000704003D4604BF012015
:1013E000BDE8F081A06A002628B9E66284F824608E
:1013F000204600F085F82046FEF770FF0146A06AFF
:1014000010F0100F08BF002904D0A06A40F01000AF
:10141000A06271E0A06A20F4885040F00200A0624F
:10142000E2696068237B40EA020047EA430240EA3F
:101430000202A068B0F5807F1ABF012800204FF497
:10144000807094F814C0BCF1010F08D103B3A36AF3
:1014500043F02003A362E36A43F00103E3622368DD
:10146000D3F804C02CF4694C4CEA000058602068A2
:1014700083684FF2FD7CCFF6E17C03EA0C03134353
:101480008360A068B0F5807F18BF012811D10BE000
:101490004FF4604CA369CFF6FF7C0CEB433343EA77
:1014A000000040F40060DAE7208A4FEA0050A0F51F
:1014B00080152068C36A23F4700343EA0503C362FE
:1014C0002068806840F6FE63CFF61F7300EA0300D1
:1014D000904207D1E662A06A20F0020040F00100CD
:1014E000A0620AE0A06A20F0020040F01000A062B2
:1014F000E06A40F00100E06201210846BDE8F081A9
:1015000000B585B00021009101910291039103681B
:101510004FF4805103224FF40060A3F1804CC4F2D9
:101520000201C4F20100BCF5923C1ED0A3F1804C34
:10153000BCF5943C1CBF05B000BD8B6943F48063CF
:101540008B618B6903F4806304938B6943F004031C
:101550008B61896901F0040104911C21CDE900121D
:10156000694600F0D7F905B000BD8B6943F40073FC
:101570008B618B6903F4007304938B6943F004035C
:101580008B618969009201F004010491019269461E
:1015900000F0C0F905B000BD90F821200021022A1A
:1015A00005D00422826380F8201001207047026871
:1015B000136823F00E0313600268136823F001031D
:1015C000136090F84030D0F83CC0012202FA03F3D7
:1015D000CCF8043080F8212080F8201008467047AD
:1015E00010B590F821100024022903D00421816352
:1015F000012447E001680A6822F00E020A600168CF
:101600000A6822F001020A6008220168C4F202029C
:10161000914208BF012127D01C22C4F2020291424C
:1016200008BF102120D03022C4F20202914208BF2C
:101630004FF4807118D04422C4F20202914208BFD4
:101640004FF4805110D05822C4F20202914208BFD8
:101650004FF4803108D06C22C4F2020291420CBFD8
:101660004FF480114FF080710022C4F202025160E9
:10167000012180F82110002180F82010416B002901
:1016800018BF8847204610BD806B704790F8210036
:1016900070472DE9F05FC16BD1F800C001680B689D
:1016A000046C0422A2404FF008054FF01C064FF0D6
:1016B00030074FF044084FF058094FF06C0A12EA17
:1016C0000C0FC4F20205C4F20206C4F20207C4F20F
:1016D0000208C4F20209C4F2020A18BF13F0040F90
:1016E0002ED00A6812F0200F03D10A6822F00402FB
:1016F0000A600168A94208BF042218D0B14208BF9D
:10170000402214D0B94208BF4FF480620FD0414547
:1017100008BF4FF480420AD0494508BF4FF48022E9
:1017200005D051450CBF4FF480024FF0806200217C
:10173000C4F202014A60C16A00295DD1BDE8F09F90
:101740000222A24012EA0C0F4FF0000B4FF00102F0
:1017500018BF13F0020F31D00B6813F0200F05D122
:101760000B6823F00A030B6080F821200168A9426E
:1017700008BF022218D0B14208BF202214D0B942BB
:1017800008BF4FF400720FD0414508BF4FF400521C
:101790000AD0494508BF4FF4003205D051450CBF6F
:1017A0004FF400124FF000720021C4F202014A60AF
:1017B00080F820B0816AF9B9BDE8F09F082505FAE4
:1017C00004F414EA0C0F14BF13F0080FBDE8F09FE7
:1017D0000B6823F00E030B6090F84010C36B02FA05
:1017E00001F15960826380F8212080F820B0016BFC
:1017F000002908BFBDE8F09FBDE8F05F084700285A
:1018000004BF0120704710B44FF6F8720168CBF6A0
:10181000FD724CF6CD430A44CCF6CC43A3FB023216
:101820001209920002640022C4F20202C263022280
:1018300080F821200A68D0E9013C43EA0C03D0E992
:1018400003C44CEA040C43EA0C03D0F814C06FF351
:101850000D1243EA0C03D0F818C043EA0C03D0F889
:101860001CC043EA0C031A430A6000218163012271
:1018700080F8212080F8201010BC0846704770B412
:1018800090F820404FF0000C012C02BF022070BCE9
:101890007047012480F8204090F821600025012E37
:1018A0001CBF80F820504FF0020C02D070BC604684
:1018B0007047022680F82160856305682E6826F04F
:1018C00001062E6090F84050AC40C56B6C60046817
:1018D00063604368102B036803BF9A600268D1609D
:1018E00099601CBF0168CA60C16A002901680A6862
:1018F00018BF42F00E0206D122F004020A6001680D
:101900000A6842F00A020A600068016841F00101B9
:101910000160CBE700230A689C46002A08BF704795
:101920002DE9F84F4FF481664FF00009C4F201062B
:101930004FF00108C1F211090F2706F1040E00BF94
:101940000A6808FA03F42240A2427DD14D68A5F14D
:10195000805AAAF5881A4D4577D077DC032D08BF49
:101960004FF0000C1BD00DDC002D6ED0012D08BFF8
:10197000D1F80CC013D0022D04BFD1F80CC00CF16B
:10198000080C0CE0112D04BFD1F80CC00CF1040CB4
:1019900005D0122D04BFD1F80CC00CF10C0CB2F51F
:1019A000807F34BF0546051D4FEA830428BF203CD5
:1019B000D5F800A007FA04FB2AEA0B0A0CFA04F493
:1019C0004AEA04042C604C6814F0805F6DD04FF438
:1019D0008054C4F20204A56945F00105A561A4691B
:1019E00004F00104009423F0030404F1804505F59C
:1019F0008035D5F808A04FEA83744FEA147407FACB
:101A000004FB2AEA0B0AA0F1804BBBF5843B18D0FB
:101A1000A0F1804BBBF5863B08BF4FF0010B10D007
:101A2000A0F1804BBBF5883B08BF4FF0020B08D0FC
:101A3000A0F1804BBBF58A3B0CBF4FF0030B4FF07E
:101A4000040B0BFA04F402E02FE048E034E044EA2F
:101A50000A04AC604C6814F4801F346814BF14434B
:101A6000944334604C6814F4001FDEF8004014BF47
:101A700014439443CEF800404C6814F4003F40F205
:101A80000444C4F20104256814BF1543954325603E
:101A90004C6814F4803F4FF48064C4F2010425685C
:101AA00014BF2A4325EA020222600A685B1CDA405E
:101AB0007FF446AFBDE8F88FBAF5881F0FD007DC7A
:101AC000BAF5803F18BFBAF5801F7FF468AF06E013
:101AD000BAF5001F18BFBAF5041F7FF460AFD1F844
:101AE00008C0BCF1000F08BF4FF0040C3FF457AF23
:101AF000BCF1010F4FF0080C0CBF046144614EE7CC
:101B0000002A08BF09040161704740F20000C2F2D8
:101B1000000080687047704770472DE9F047016802
:101B200004464F694E6890F83E00002517F4807F08
:101B300018BF16F4807F08D06FF4807201254A61C7
:101B400021680A6842F400420A6017F4007F18BF57
:101B500016F4807F05D022686FF4007145F002050D
:101B6000516117F4806F18BF16F4807F72D0B4F8FB
:101B70002AC094F83D20236B6FF48061202808BFB1
:101B8000BCF1000F07D1212A18BF292A0CD0282A1E
:101B900008BF212B08D02268516145F004051028A8
:101BA00018BF402856D150E094F83D302046D4F874
:101BB0002CC04FF000094FF02008CFF6FF794FF00E
:101BC0000002BCF1080F14BFBCF1200F282B05D078
:101BD000212B1CBF2068416118D03BE0C0F82C903D
:101BE0000368D3F804C02CF4E06CC3F804C00368A5
:101BF000596101680B6823F480630B60026380F80D
:101C00003D8080F83E2000F06DFD23E0C0F82C9070
:101C10002123036380F83D8080F83E200368D3F8D9
:101C200004C02CF4E06CC3F804C003685961016877
:101C30000B6823F480630B6001684B6913F0800F1D
:101C400018BF0A6100F0A0FD04E02068016841F4BB
:101C50000071016017F4006F18BF16F4807F05D083
:101C600021686FF4006045F008054861002D08BF49
:101C7000BDE8F087206C40EA050020642046BDE8FE
:101C8000F04702F086BA2DE9F84F02684FF0000CD9
:101C90005168D0F82C8090F83E7090F83D40202696
:101CA0006546102F18BF402F21D0036C002B08BFB2
:101CB000D2F818C053694FF0280713F0020F18BF6D
:101CC00011F4007F00F00583016C002918BFD2F8E1
:101CD00018C0002190F83D3037EA030300F0E68297
:101CE00051699169009180F83C50BDE8F88FD2F8B5
:101CF00018C053694FF0010913F0010F28D011F4F7
:101D0000007F2CD0C16AB1F52A0F08BFC0F82C9013
:101D100005D0C16AB1F12A4F04BF0821C16290F811
:101D20003E10402930D00169B1F5804F36D0016DA9
:101D300000294CD0016D012918BFBDE8F88F406C17
:101D4000F12100F4407041EAD0101061BDE8F88F35
:101D5000B8F52A0F14BFB8F12A4FBDE8F88F13F079
:101D6000080F18BF11F4007F3FD0416CC9B2116158
:101D7000416B00291CBF896A00292ED00068416888
:101D800041F4006100F0C0B9016D406C00291ABF38
:101D900040F00100C0B200F0FE00D6E790F83D1020
:101DA0002129416C1ABF41F00101C9B201F0FE01C5
:101DB0001161416B00291CBF896A0029DED1816B4A
:101DC00000291CBF896A0029D8D1BDE8F88F406C72
:101DD0004FF0F00100F44070B5E7816B00291CBFA3
:101DE000896A0029CAD1BDE8F88F13F0020F18BF25
:101DF00011F4007F76D090F83EC0C16A036B90F872
:101E00003D40222C04D0506990690090BDE8F88FC5
:101E1000046D002C08BFBCF1400FF4D0D0F850C0C6
:101E2000BCF1000F04BFD0F810C0BCF5404F20D06B
:101E3000B0F82AC0BCF1000F28D0B0F82AC0BCF11D
:101E4000010F2BD0438D022B5DD0136843F48063C8
:101E500013600268536813F4006F42D011F5803F9D
:101E600018BF01297DD008291CBF1029202978D04E
:101E70007BE0516991690091116841F480711160B2
:101E8000016D01F101010165BDE8F88F51699169AA
:101E90000091116841F4007111606AE011F5803F12
:101EA00012D0082918BF202927D0122B23D00429AB
:101EB00019BF02291029116841F4806102D011680C
:101EC00021F48061116050E0116821F4806111609B
:101ED00001684A6812F4006F05D00A6822F4806233
:101EE0000A6042E048E04A698A6900920A6842F45E
:101EF00000720A603DE00129E1D0116821F480619F
:101F000011600168EFE704291CBF0229102913683A
:101F10000BD043F400631360026853699369009324
:101F2000136823F48063136006E043F48063136056
:101F300002685369926900920268536813F4006F53
:101F400017D011F5803F18BF012904D008291CBF04
:101F5000102920290DD1516841F48051516008E0C9
:101F6000FFE7516841F48051516001684A6989690D
:101F700000910565BDE8F88F1CF0040FD2F804C08D
:101F80000CF4006C7DD0BCF1000F18BFBDE8F88FD9
:101F900013F0800F4FF0110C18BF11F4806F57D061
:101FA00013F0040F59D190F83D3090F83E40C16ACB
:101FB000078DBFB1212B04D0402C0CBF222BBDE8D4
:101FC000F88F418DB9B390F83E10402950D0416A46
:101FD00009781161416A491C4162418D491E418560
:101FE000BDE8F88F212BE7D108291CBF202911F566
:101FF000803F0AD0516821F4E0615160C0F830C0E0
:1020000080F83E5080F83D6018E0516821F4E061AE
:10201000516001680A6842F400720A60056380F842
:102020003D6090F83E10402906D180F83E5000F007
:102030005DFBBDE8F88F05E080F83E5000F054FBF2
:10204000BDE8F88F506820F480605060BDE8F88FDC
:1020500013F0040F08BFBDE8F88F11F4007F08BF2C
:10206000BDE8F88F212C07D0402F18BFBDE8F88FAE
:10207000BDE8F84F02F03CB9C16A90F83D30212B21
:1020800000E01CE018BFBDE8F88F438D002B9ED107
:1020900008291CBF202911F5803FABD1516821F4DC
:1020A000E061516001680A6842F400720A600563E9
:1020B00080F83D6090F83E104029BDD1B5E7BCF1F5
:1020C000000FC3D113F0400F4FF0120C18BF11F4E2
:1020D000806F79D013F0040F7AD190F83D10222947
:1020E000B4D1418D032911D91169426A1170416A35
:1020F000491C4162418D491E4185418D0329A5D16D
:102100000068416821F4806141609FE7C36A022B47
:1021100098D0012918BF002994D140F20C01C2F2D5
:102120000001096846F2A812B1FBF2F101EB81014E
:1021300000910168009A521E00921DD00A6812F4A4
:10214000007FF7D10A6822F480620A6001684A6859
:1021500022F4E0624A6001680969426A1170416ACA
:10216000491C4162418D491E418580F83D6090F8CF
:102170003E10402921D118E0026C42F02002026496
:102180004A6822F4E0624A6001680969426A117093
:10219000416A491C4162418D491E418580F83D607C
:1021A00080F83E5000F0C4F950E780F83E500563D7
:1021B00000F09BFA4AE707E00AE080F83E50C0F8DA
:1021C00030C000F090FA41E713F0040F3FF43EAF47
:1021D00011F4007F3FF43AAFC16A438D042B0FD056
:1021E000438D032B11D0438D022B28D01169426AF5
:1021F0001170416A491C4162418D491E418525E7A4
:10220000516821F4806151600CE0536823F48063CD
:102210005360042918BF022904D001680A6822F417
:1022200080620A6001680969426A1170416A01F1BD
:1022300001014162418DA1F10101418506E70129BA
:1022400018BF10292DD0042918BF022911680CBF0E
:1022500041F4806141F40071116001680969426ACA
:102260001170416A01F101014162418DA1F1010149
:10227000418501680969426A1170416A01F10101F1
:102280004162418DA1F10101418501684A6822F452
:1022900040724A6080F83D6090F83E1040298CD131
:1022A00083E7116821F480611160D6E7536823F455
:1022B000806353601CF0040F08BF01211CF0800FE5
:1022C0000CBF8289028B92B280F83C50FFF724FC4D
:1022D000BCE613F0100F18BF11F4007F7DD090F80A
:1022E0003D800446506820F4E060506020684169F9
:1022F0000091016841F0010101602068016821F44A
:10230000806101602068406810F4006F27D044F2BB
:10231000BD09C0F60009B8F1220F18BFB8F12A0FA5
:1023200048D0606B006840686085608D18B1206C93
:1023300040F0040020642068416821F4006141609D
:10234000606BFFF7A3F9012809D0606BC0F83490E7
:10235000606BFFF745F910B1606B416B8847608D8A
:1023600008B32068416911F0040F08D00069616A60
:102370000870606A401C6062608D401E6085206845
:10238000416911F0400F08D00069616A0870606A05
:10239000401C6062608D401E6085608D18B1206CAD
:1023A00040F004002064206C30B32046BDE8F84FB4
:1023B00001F0EFBEA06B006840686085608D18B1C9
:1023C000206C40F0040020642068416821F4006122
:1023D0004160A06BFFF75AF900E036E00128BED05B
:1023E000A06BC0F83490A06BFFF7FAF80028B6D0C5
:1023F000A06B416B8847B2E7B8F12A0F05D125637E
:1024000084F83D70204600F0BEF994F83D0028287D
:102410000DD0206B222818BFB8F1220F7FF416AE22
:10242000256384F83D6084F83E50204671E04FF00B
:102430000000CFF6FF70E062256384F83D6084F809
:102440003E50204600F04EF900E6212C18BF292C02
:1024500009D013F0400F18BF11F4806F5CD013F057
:10246000040F37D05CE013F0800F18BF11F4806FB9
:1024700024D013F0040F25D190F83D10438D002B8C
:102480003FF4E4AD436A1B781361426A521C426216
:10249000428D521E4285428D002A08BF29297FF4B1
:1024A000D5AD01684A6822F480624A604FF021018C
:1024B000016380F83D7000F067F9C7E513F0040F81
:1024C0003FF4C4AD11F4007F1CBF418D00293FF4DF
:1024D000BDAD7CE590F83D10438D002B3FF4B6ADCB
:1024E0001269436A1A70426A521C4262428D521E3D
:1024F0004285428D002A08BF2A297FF4A7AD0168D2
:102500004A6822F480624A604FF02201016380F839
:102510003D7000F038F999E513F0040F3FF496ADE3
:1025200011F4007F1CBF418D00297FF45FAE8DE563
:1025300070470000002804BF0120704770B50446B2
:1025400090F83D00002520B984F83C50204600F06A
:10255000CEF8242084F83D002068016821F00101B4
:1025600001602068016841F4004101602068016851
:1025700021F40041016000F0A0FB48F2A062616814
:10258000C0F20102914206D848F28041C0F21E0119
:10259000814206D807E04FF41061C0F23D0181424C
:1025A00001D9012070BD44F24021C0F20F01B0FBFF
:1025B000F1F12368D3F804C02CF03F0C4CEA010C75
:1025C000C3F804C063689A4228BF4B1C07D24FF47B
:1025D000967359434FF47A73B1FBF3F14B1C2168A6
:1025E000D1F820C02CF03F0C43EA0C030B62616869
:1025F0008A420FD34900401EB0FBF1F2521CC2F3D5
:102600000B02042A31BF0420B0FBF1F0401CC0F3E0
:102610000B0023E0A268002A53D001EBC10303EBB7
:102620000113A0F1010CBCFBF3F35B1C43F48043EA
:102630001B051B0D08BF012010D0002A49D001EB5B
:10264000C10202EB0111401EB0FBF1F0401CC0F3CF
:102650000B0040F4804000BF40F400402168CA698C
:1026600022F0FF0222F44F421043C861D4E907016F
:1026700001432068026822F0C00211430160D4E9DE
:10268000031001432068826822F0FF0222F4034213
:1026900011438160D4E9050101432068C26822F03A
:1026A000FF021143C1602068016841F0010101602F
:1026B0002564202084F83D00256384F83E500020E6
:1026C00070BD01EB4103A0F1010CBCFBF3F35B1CFB
:1026D000AEE701EB4101401EB0FBF1F0401CC0F33E
:1026E0000B00B9E77047704770477047704710B5E7
:1026F00086B0002100910191029103910068A0F140
:102700008041B1F5A8411CBF06B010BD4FF4805404
:10271000C4F20204A06940F00800A061A069694603
:1027200000F0080004904FF44070009012200190D7
:10273000032003904FF44060C4F20100FFF7EAF871
:102740000020C4F20100416841F0020141F0E06163
:102750004160E06940F40010E061E069002200F4AB
:10276000001004900F211F2000F07BF81F2000F0C4
:1027700069F800220F21202000F073F8202000F0DB
:1027800061F806B010BD7047704740F20000C2F219
:102790000000816802781144816070474FF4005056
:1027A00010B5C4F20200016841F01001016003207D
:1027B00000F08AF80F2000F004F800F023F8002061
:1027C00010BD70B5044640F20005C2F2000528783D
:1027D0004FF47A71B1FBF0F040F20C01C2F200014B
:1027E0000968B1FBF0F000F073FC48B9102C07D277
:1027F00000222146501E00F034F800206C6070BDAD
:10280000012070BD4FF48050C4F2020081B0816994
:1028100041F001018161816901F001010091C1690B
:1028200041F08051C161C06900F0805000900020EB
:10283000C4F20100416821F0E06141F000714160A3
:1028400001B070470028B8BF704700F01F01012297
:1028500002FA01F14009800000F1E020C0F8001107
:1028600070474EF60C5310B4CEF200031B68C3F34E
:102870000223C3F1070CBCF1040F88BF4FF0040C16
:102880001C1D072C34BF0023DB1E012404FA0CFCA2
:10289000ACF1010C0CEA0101994004FA03F35B1E50
:1028A0001A40114300284FEA0111A1BF00F1E020B6
:1028B00080F8001410BC704700F00F0000F1E02019
:1028C00080F8141D10BC70474EF60C51CEF200017A
:1028D00000F007000A684FF6FF031A4042EA0020A2
:1028E00040F0FD7040F080600860704710B5014610
:1028F00000204FF48054C4F20204012937D0022989
:1029000058D0102918BF10BD6168226812F0807F6E
:1029100008BF10BD48F22A30C0F60000C1F3834260
:1029200011F4803F805C02BF4FF41061C0F23D01A2
:1029300048430ED06168C1F3404148F22832C0F6E6
:102940000002515C4FF49052C0F27A02B2FBF1F1F6
:102950004843616811F4800F18BF10BD40004AF66B
:10296000AB21CAF6AA21A1FB0010400810BD216AC4
:1029700001F44072B2F5807F05D111F0020F1CBF47
:102980004FF4004010BDB2F5007F06D1626A12F02C
:10299000020F1CBF49F6404010BD4FF4407232EAAE
:1029A000010118BF10BD216811F4003F18BF4FF29C
:1029B000244010BD00F094F96168C1F38131491CD5
:1029C0004900B0FBF1F010BD2DE9F8430446007852
:1029D0004FF4805810F0010FC4F2020870D0D8F8FC
:1029E0001C00002710F0805F0BD1D8F81C0040F0CD
:1029F0008050C8F81C00D8F81C00012700F0805057
:102A000000904FF4E046C4F20006306810F4807F76
:102A100013D1306840F480703060FFF776F80546D7
:102A2000306810F4807F08D1FFF76FF8401B6428EE
:102A30002FD8306810F4807FF6D0D8F8200010F43A
:102A400040702ED0A18801F44071814229D0D8F87D
:102A50002000012220F440714FF48860C4F242202B
:102A6000026000220260C8F8201011F0010F18D097
:102A7000FFF74BF80546D8F8200010F0020F08BF0A
:102A800041F288360DD100BFFFF73FF8401BB0423E
:102A900002D90320BDE8F883D8F8200010F0020F17
:102AA000F2D0D8F82000616820F440700843C8F8DC
:102AB00020002FB1D8F81C0020F08050C8F81C006E
:102AC000207810F0020F07D0D8F80400A16820F495
:102AD00040400843C8F80400207810F0100F07D0D9
:102AE000D8F80400E16820F480000843C8F8040026
:102AF0000020BDE8F8830000002804BF01207047D3
:102B00002DE9F0474FF40058C4F202080546D8F802
:102B100000000E4600F00700B0420CD2D8F80000CA
:102B200020F007003043C8F80000D8F8000000F09B
:102B30000700B04267D128684FF4805410F0020FAC
:102B4000C4F2020414D010F0040F03D0606840F403
:102B5000E0606060287810F0080F03D0606840F4EF
:102B6000605060606068A96820F0F0000843606011
:102B7000287810F0010F33D06868012820D0216830
:102B8000022822D011F0020F3DD0616821F003012C
:102B900008436060FEF7B9FF07466068696800F0A7
:102BA0000C00B0EB810F18BF41F2883918D000BF7C
:102BB000FEF7ABFFC01B48450BD90320BDE8F087EB
:102BC000216811F4003FE0D11DE011F0007FDCD15D
:102BD00019E06068696800F00C00B0EB810FE7D184
:102BE000D8F8000000F00700B0420FD9D8F8000074
:102BF00020F007003043C8F80000D8F8000000F0CB
:102C00000700B04202D00120BDE8F087287810F01C
:102C1000040F05D06068E96820F4E0600843606054
:102C2000287810F0080F06D06068296920F46050F9
:102C300040EAC100606061684FF4905001F00C02FE
:102C4000C0F27A00042A20D0082A1ED148F2183097
:102C5000C0F60000C1F3834211F4803F805C02BFE4
:102C60004FF41061C0F23D0148430ED06168C1F3DA
:102C7000404148F21632C0F60002515C4FF49052C7
:102C8000C0F27A025043B0FBF1F06168C1F3031166
:102C900048F23A32C0F60002515CC84040F20C01E2
:102CA000C2F20001086040F20400C2F200000068B5
:102CB000FFF787FD0020BDE8F08740F20C00C2F26C
:102CC00000004FF48051C4F2020100684968C1F36A
:102CD000022148F24A32C0F60002515CC8407047F7
:102CE00040F20C00C2F200004FF48051C4F2020125
:102CF00000684968C1F3C22148F24A32C0F60002B6
:102D0000515CC84070470000002804BF0120704794
:102D10002DE9F84F044600784FF4805510F0010F6C
:102D2000C4F2020558D0686800F00C00042808D0EE
:102D3000686800F00C0008280CD1686810F4803F27
:102D400008D0286810F4003F46D06068002800F0E2
:102D5000B98141E06068B0F5803F04BF286840F465
:102D600080300AD010B1B0F5A02F11D0286820F41F
:102D700080302860286820F4802028606068D0B106
:102D8000FEF7C3FE0646286810F4003F08D023E093
:102D9000286840F480202860286840F48030ECE700
:102DA000FEF7B3FE801B642800F23D81286810F412
:102DB000003FF5D010E0FEF7A8FE0646286810F4A4
:102DC000003F09D0FEF7A1FE801B642800F22B8192
:102DD000286810F4003FF5D120784FF0000610F07D
:102DE000020F4FF0010B4FF00008C4F2422644D00E
:102DF000686810F00C0F14D0686800F00C00082808
:102E000004BF686810F4803F0BD0206918B3C6F87F
:102E100000B0FEF77AFE0746286810F0020F09D0CE
:102E200011E0286810F0020F1CBF206901280AD0A9
:102E300000F048B9FEF769FEC01B02287DD828685B
:102E400010F0020FF6D02868616920F0F80040EA1F
:102E5000C100286011E0C6F80080FEF756FE074664
:102E6000286810F0020F08D0FEF74FFEC01B0228A2
:102E700063D8286810F0020FF6D1207810F0080F00
:102E800039D04FF49060A169C4F2422009B3C0F870
:102E900000B0FEF73AFE0746686A10F0020F08D14C
:102EA000FEF733FEC01B022847D8686A10F0020FF5
:102EB000F6D040F20C00C2F2000001684FF4FA5064
:102EC000B1FBF0F0009000BF0098411E0091FAD2D3
:102ED00011E0C0F80080FEF718FE0746686A10F09F
:102EE000020F08D0FEF711FEC01B022825D8686A21
:102EF00010F0020FF6D1207810F0040F7BD0E869B3
:102F00004FF0000A10F0805F09D1E86940F080506E
:102F1000E861E8694FF0010A00F0805000904FF43A
:102F2000E049C4F20009D9F8000010F4807F19D1FB
:102F3000D9F8000040F4807000E074E0C9F80000A7
:102F4000FEF7E3FD0746D9F8000010F4807F09D1B1
:102F5000FEF7DBFDC01B642865D8D9F8000010F42B
:102F6000807FF5D0E068012804BF286A40F00100A6
:102F700009D008B1052813D0286A20F00100286282
:102F8000286A20F004002862E06841F28837D0B156
:102F9000FEF7BBFD8146286A10F0020F08D023E03F
:102FA000286A40F004002862286A40F00100EAE73D
:102FB000FEF7ABFDA0EB0900B84234D8286A10F048
:102FC000020FF5D010E0FEF7A0FD8146286A10F050
:102FD000020F09D0FEF799FDA0EB0900B84222D8F4
:102FE000286A10F0020FF5D1BAF1000F03D0E8699A
:102FF00020F08050E861E069F0B3696801F00C01ED
:10300000082950D00228C6F860800FD0FEF77DFD59
:103010000446286810F0007F57D000BFFEF775FD0A
:10302000001B02283AD90320BDE8F88FFEF76DFD9A
:103030000746286810F0007F09D000BFFEF765FD45
:10304000C01B0228EFD8286810F0007FF6D1206A54
:10305000B0F5803F05D16868A16820F400300843CE
:103060006860D4E908010843696821F474110843D1
:103070006860C6F860B000E027E0FEF746FD044651
:10308000286810F0007F20D1FEF73FFD001B0228CA
:10309000C9D8286810F0007FF6D016E0286810F034
:1030A000007FBBD111E0012808BFBDE8F88F686838
:1030B000226A00F48031914204D1616A00F47010F8
:1030C000884202D00120BDE8F88F0020BDE8F88FCB
:1030D000411EB1F1807F24BF012070474FF0E020F6
:1030E00041614EF20F02CEF20002F02182F8141D6F
:1030F00000218161072101610020704790F83C2088
:10310000012A04BF02207047012280F83C20CA68CF
:103110008B6822F440721A434B6822F480621A438F
:103120000B6822F400621A430B6922F480521A439E
:103130004B6922F400521A43C96922F480421143B8
:1031400002685164002180F83C100846704790F8EE
:103150003C20012A04BF0220704730B4012380F8CC
:103160003C30022280F83D2002685468D2F808C042
:103170000D6824F070042C4354600268A2F180446E
:10318000B4F5963418BFB2F1804F09D0A2F1804453
:10319000B4F580641CBFA2F18044B4F5006405D18D
:1031A00049682CF0800C41EA0C01916080F83D30B8
:1031B000002180F83C1030BC08467047002804BF4E
:1031C0000120704710B5044690F83D0028B9002052
:1031D00084F83C00204600F01EF8022084F83D00F0
:1031E000211D206801F027FC012084F8460084F8A6
:1031F0003E0084F83F0084F8400084F8410084F8E1
:10320000420084F8430084F8440084F8450084F8C0
:103210003D00002010BD006881B0A0F18041B1F5F3
:1032200096311CBF01B070474FF48050C4F20200C9
:10323000816941F400618161806900F4006000905F
:1032400001B0704790F83C200023012A0DBF0220F6
:103250004FF0010C80F83CC0704770B4022280F837
:103260003D200268946824F0770424F47F4494603D
:103270000A68502A43D00CDC202A75D004DC002ACE
:1032800018BF102A0FD18BE0302A6DD0402A6DD0A4
:1032900009E0602A4DD0702A0ED0B2F5805F03D0CD
:1032A000B2F5005F19D0012380F83DC0002180F8FD
:1032B0003C1070BC18467047D1E901450268C968E6
:1032C000966844EA012126F47F4629433143916000
:1032D00001688A6842F077020FE0D1E9014502688F
:1032E000C968966844EA012126F47F4629433143A0
:1032F000916001688A6842F480428A60D4E702687B
:103300004C68C968156A166A26F001061662966945
:1033100025F00A0526F0F00646EA01112C439161DA
:10332000146201688A6822F0700242F057028A60D3
:10333000BAE702684C68C968156A166A26F0100672
:103340001662966925F0A00526F4704646EA01311A
:1033500045EA04149161146201688A6822F07002DF
:1033600042F067028A609FE71AE0FFE702684C6854
:10337000C968156A166A26F001061662966925F074
:103380000A0526F0F00646EA01112C439161146209
:1033900001688A6822F0700242F047028A6083E77F
:1033A00001688C6824F07004224342F007028A60AE
:1033B0007AE7F0B490F83C300024012B02BF0220E1
:1033C000F0BC7047012380F83C304FF43053C4F216
:1033D00001036AB1042A32D0082A5CD00C2A18BF33
:1033E00001247ED0002180F83C102046F0BC7047BC
:1033F0000268D2F820C0156A25F0010515625568EB
:1034000096690F6826F073063E438F682CF0020C15
:1034100047EA0C0C9A420DD12CF00803D1F80CC0ED
:103420004CEA030323F0040C25F440734D692B434D
:103430008D691D43556096614968516328E00268B3
:10344000D2F820C0156A25F01005156255689669F6
:103450000F6826F4E64646EA07268F682CF0200C13
:103460004CEA071C9A420FD12CF08003D1F80CC013
:1034700043EA0C1323F0400C25F440634D6943EA02
:1034800085038D6943EA85055560966149689163B6
:10349000C2F820C0A6E70268D2F820C0156A25F459
:1034A000807515625568D6690F6826F073063E432D
:1034B0008F682CF4007C4CEA072C9A420FD12CF434
:1034C0000063D1F80CC043EA0C2323F4806C25F48C
:1034D00040534D6943EA05138D6943EA051555606C
:1034E00000E005E0D6614968D163C2F820C079E701
:1034F0000268166AD2F820C02CF4805CC2F820C0A2
:10350000D2F804C0D5690F6825F4E64545EA0725D9
:103510008F6826F4005646EA07369A4205D12CF405
:103520008043D1F814C043EA8C1CC2F804C0D561B2
:1035300049681164166255E7002804BF01207047EE
:1035400010B5044690F83D0028B9002084F83C00EE
:10355000204600F01EF8022084F83D00211D20685E
:1035600001F069FA012084F8460084F83E0084F8EE
:103570003F0084F8400084F8410084F8420084F859
:10358000430084F8440084F8450084F83D0000209E
:1035900010BD70474FF0000C022349B1042912D02E
:1035A00008291BD090F84120012A53D001207047F0
:1035B00090F83E20012AF9D180F83E300268D368A5
:1035C00043F0020314E090F83F20012AEED180F886
:1035D0003F300268D36843F0040309E090F84020CC
:1035E000012AE3D180F840300268D36843F0080331
:1035F000D36001F01F03026801219940136A8B43D5
:103600001362136A194311624FF430520168C4F215
:103610000102914203D14B6C43F400434B640068B8
:10362000904218BFB0F1804F09D0A0F18041B1F5B0
:1036300080611CBFA0F18041B1F5006104D18168B7
:1036400001F00701062903D0016841F00101016082
:103650006046704780F841300C2918BF4FF0010CCC
:10366000F6D10268D36843F01003C1E7F0B490F8D4
:103670003C300024012B02BF0220F0BC7047012324
:1036800080F83C304FF43053C4F201036AB1042A8D
:1036900042D0082A7ED00C2A18BF012479D00021FC
:1036A00080F83C102046F0BC70470268D2F820C079
:1036B000156A25F001051562556896690F6826F0B0
:1036C00073063E438F682CF0020C47EA0C0C9A42BA
:1036D0000DD12CF00803D1F80CC04CEA030323F001
:1036E000040C25F440734D692B438D691D435560CF
:1036F00096614B685363C2F820C00268936943F037
:10370000080393610268936923F0040393610268DC
:1037100093690969194339E00268D2F820C0156A33
:1037200025F010051562556896690F6826F4E6467F
:1037300046EA07268F682CF0200C4CEA071C9A42B8
:103740000FD12CF08003D1F80CC043EA0C1323F006
:10375000400C25F440634D6943EA85038D6943EAD3
:103760008505556096614B689363C2F820C0026876
:10377000936943F4006393610268936923F480635F
:10378000936102689369096943EA0121916186E7BF
:1037900000E038E00268D2F820C0156A25F4807590
:1037A00015625568D6690F6826F073063E438F6828
:1037B0002CF4007C4CEA072C9A420FD12CF40063C5
:1037C000D1F80CC043EA0C2323F4806C25F4405359
:1037D0004D6943EA05138D6943EA05155560D661C5
:1037E0004B68D363C2F820C00268D36943F0080372
:1037F000D3610268D36923F00403D3610268D369FB
:103800000969194331E00268166AD2F820C02CF425
:10381000805CC2F820C0D2F804C0D5690F6825F4D6
:10382000E64545EA07258F6826F4005646EA07363E
:103830009A4205D12CF48043D1F814C043EA8C1C81
:10384000C2F804C0D5614B68136416620268D3697C
:1038500043F40063D3610268D36923F48063D361C6
:103860000268D369096943EA0121D16117E7002899
:1038700004BF0120704710B5044690F83D0028B9F8
:10388000002084F83C00204600F01EF8022084F856
:103890003D00211D206801F0CEF8012084F846008B
:1038A00084F83E0084F83F0084F8400084F841002A
:1038B00084F8420084F8430084F8440084F845000A
:1038C00084F83D00002010BD704738B5044690F8DC
:1038D000420020281CBF022038BD002918BF002A42
:1038E0004FF0010008BF38BD20634FF00000606357
:1038F000204601F08FFA030004D1206B012818BF85
:10390000012301D0184638BD206801684068009046
:10391000206800F10C0151E8000F40F0100041E870
:103920000002002AF4D1EDE710B50068A0F1804252
:10393000B2F59C3218BF10BDC9B242F28800C2F283
:10394000000003F06BFD40F6D000C2F2000000F072
:1039500052F84FF4006000224FF40061C4F20100FD
:10396000FEF7CEF8FF2242F28801C2F2000140F6D3
:10397000D000C2F20000FFF7A8FF40F61810C2F214
:1039800000000068016821F00401016010BD70B5FD
:103990000446206800F10C0151E8000F20F0C0003F
:1039A00041E80002002AF4D120684069154610F071
:1039B000800F16D0206800F1140151E8000F20F0AC
:1039C000800041E80002002AF4D1A06B48B14563B1
:1039D000A06BFDF7E1FD20B1A06BFDF755FE20289F
:1039E00005D0E584202084F84100002070BD10201F
:1039F0006064032070BD70B504460068406994F8A7
:103A00004110C0F3C010202521291CD1D8B1206855
:103A1000143050E8001F21F0800140E80012002A15
:103A2000F5D1A06B002818BFFDF7B6FD206800F1A6
:103A30000C0151E8000F20F0C00041E80002002A0C
:103A4000F4D184F841502068406994F84210C0F3E2
:103A50008010222937D1B0B3206800F1140151E859
:103A6000000F20F0400041E80002002AF4D1E06B92
:103A7000002818BFFDF790FD206800F10C0151E807
:103A8000000F20F4907041E80002002AF4D1206871
:103A9000143050E8001F21F0010140E80012002A14
:103AA000F5D1206B01280AD1206800F10C0151E802
:103AB000000F20F0100041E80002002AF4D184F841
:103AC000425000202063002070BD10B50068A0F1B6
:103AD0008041B1F59C3118BF10BD40F26430C2F294
:103AE0000000017819B90121017003F0EAFC40F6E9
:103AF000D000C2F20000FFF77EFF4FF4006000220A
:103B00004FF40061C4F20100FDF7FAFFFF2242F218
:103B10008801C2F2000140F6D000C2F20000FFF7B7
:103B2000D4FE40F61810C2F200000068016821F0CF
:103B30000401016010BDF8B5016804460868CA6850
:103B40004B6910F00F0F4FF020064FF0000560D0CA
:103B500003F0010C02F490775CEA07077CD010F0C8
:103B6000010F18BF12F4807F03D0616C41F0010196
:103B7000616410F0040F18BF13F0010F03D0616CE3
:103B800041F00201616410F0020F18BF13F0010F41
:103B900003D0616C41F00401616410F0080F1CBF98
:103BA00002F0200151EA0C0103D0616C41F00801E0
:103BB0006164616C002908BFF8BD10F0200F1EBFC2
:103BC00012F0200F204601F058F820684069616C1F
:103BD000C0F3801011F0080F08BF00285AD02068E9
:103BE00000F10C0151E8000F20F4907041E8000250
:103BF000002AF4D1206800F1140151E8000F20F0F0
:103C0000010041E80002002AF4D1206B012815D1FF
:103C10000AE010F0200F18BF12F0200F3FD020460E
:103C2000BDE8F84001F029B820680C3050E8001FCA
:103C300021F0100140E80012002AF5D184F842601A
:103C400025632068406910F0400F1FD0206800F104
:103C5000140151E8000F00E021E020F0400041E8AD
:103C60000002002AF2D1E06B80B144F6B321C0F625
:103C700000014163E06BFDF7B3FC002808BFF8BD0D
:103C8000E06B416B01B0BDE8F04008472046FFF70C
:103C90001CFFF8BD2046FFF718FF6564F8BD236BD5
:103CA000012B7ED110F0100F18BF12F0100F78D03A
:103CB00008684868009048694FF0020710F0400F0C
:103CC00045D0E16B086840680004000C1CBFA28D61
:103CD000824298BFF8BDE085886920282ED02068F0
:103CE0000C3050E8001F21F4807140E80012002AD7
:103CF000F5D12068143050E8001F21F0010140E8A0
:103D00000012002AF5D1206800F1140151E8000FDB
:103D100020F0400041E80002002AF4D184F842601B
:103D2000256320680C3050E8001F21F0100140E8A6
:103D30000012002AF5D1E06BFDF72EFC6763A08D21
:103D4000E18D401A81B22046FFF7EEFDF8BDA08D4F
:103D5000E18D401A81B2E08D002814BF0029F8BD22
:103D6000206800F10C0252E8000F20F4907042E845
:103D70000003002BF4D1206800F1140050E8002F5C
:103D800022F0010240E80023002BF4D184F84260C5
:103D90002563206800F10C0252E8000F20F01000AB
:103DA00000E008E042E80003002BF2D16763204600
:103DB000FFF7BAFDF8BD10F0800F18BF12F0800FAA
:103DC0002DD094F84100212818BFF8BDA068B0F5A7
:103DD000805F04BF20690028206A18D000F101012B
:103DE0002162216800784860E08CA0F101000004A5
:103DF000000CE08418BFF8BD2068C16821F0800184
:103E0000C1602068C16841F04001C160F8BD008810
:103E1000C0F308004860206A801C2062E4E710F0CC
:103E2000400F14BF12F0400FF8BD2046CA6822F0C0
:103E30004002CA6084F8416000F0FDF8F8BD002837
:103E400004BF0120704770B5044690F8410000257A
:103E500020B984F84050204600F023F8242084F84C
:103E600041002068C16821F40051C160204600F083
:103E70006BFF2068016921F490410161206841696C
:103E800021F02A0141612068C16841F40051C160FC
:103E90006564202084F8410084F8420065630020B6
:103EA00070BDF0B585B000240646009401940294DC
:103EB00003940068A0F18041B1F59C311CBF05B0AE
:103EC000F0BD4FF48050C4F20200816941F480419A
:103ED0008161816901F480410491816941F00801A7
:103EE000816180694FF4406500F008000490402033
:103EF0000090022001900320C4F20105039069465E
:103F00002846FDF707FD8027CDE90074694628465D
:103F10000294FDF7FFFC0020C4F20100416841F06B
:103F2000040141F0E06141605820C4F2020040F613
:103F30001815C2F20005C5E90004C5E902472C6165
:103F40006C61AC612846EC61FDF759FC002818BF94
:103F5000FCF764FAF5634420C4F202006E6240F696
:103F60005C15C2F2000528601020C5E90104C5E90E
:103F700003746C61AC612846EC61FDF740FC0028DD
:103F800018BFFCF74BFAB56300220F2125206E62A3
:103F9000FEF767FC2520FEF755FC05B0F0BD704725
:103FA000704710B5044690F8410020281CBF02203D
:103FB00010BD002912BF002A012010BD2162A28479
:103FC000E2844FF0000060644FF0210384F8413038
:103FD00044F62743C0F60003D4F838C0CCF82830A4
:103FE00044F67143C0F60003D4F838C0CCF82C3046
:103FF00044F6C323C0F60003D4F838C0CCF8303000
:10400000A36B58632068134600F1040C6246A06B52
:10401000FDF735FC21686FF040000860206800F172
:10402000140151E8000F40F0800041E80002002A2E
:10403000F4D1002010BD10B50068A0F18041B1F5A9
:104040009C3118BF10BD012040F26431C2F2000162
:10405000087003F00DFA40F6D000C2F20000FFF73E
:10406000CAFC4FF4006000224FF40061C4F201006A
:10407000FDF746FDFF2242F28801C2F2000140F640
:10408000D000C2F20000FFF720FC40F61810C2F288
:1040900000000068016821F00401016010BD704754
:1040A000FEE740F63400C2F20000FDF736BD40F6F0
:1040B0003400C2F20000FDF7E6BD000008B5406A1A
:1040C000002290F83D3040F20C01C2F20001096874
:1040D00046F2A81CB1FBFCF1C1EBC10101EB81016F
:1040E000009149B1491E00910168096811F4007FEF
:1040F00018BF0099F5D103E0016C41F02001016483
:10410000416B002918BF8A62816B002918BF8A623F
:104110000168D1F800C02CF4806CC1F800C0428561
:10412000416B002918BF4A63816B002918BF4A639D
:104130000168D1F800C02CF0010CC1F800C090F863
:104140003DC02021BCF1600F0DD04FF0280C3CEA9F
:1041500003031CBF80F83D1080F83E200BD000BF49
:10416000FEF7E6F908BD80F83D1080F83E200264B5
:10417000FDF7D1FC08BD01680B6843F001030B603B
:1041800001680B6843F480630B60026380F83DC0F4
:10419000E6E770B5044690F83D0094F83E1010290B
:1041A00014BF4029222804D121680A6822F4006241
:1041B0000A604FF0280131EA00024FF000054FF08D
:1041C000200604BF256384F83D100BD021684968A0
:1041D00011F4006F05D160281CBF84F83D6084F89D
:1041E0003E5025632068416811F4006F39D0416862
:1041F00021F400614160606B90F8212044F2BD0120
:10420000C0F60001012A10D04163606BFDF7E8F9A8
:10421000002837D02068016821F00101016084F88E
:104220003D60606B416B88472CE0A06B4163A06BE5
:10423000FDF7D6F930B32068416911F0400F05D081
:104240000069616A0870606A401C606220680168E9
:1042500021F00101016084F83D60A06B416B88474B
:1042600010E094F83D1060292CD0416911F0400F06
:1042700005D00069616A0870606A401C606220466F
:10428000FEF756F9206C10F00F0F04D0206841683B
:1042900021F4E061416094F83D00216C11F0040FBD
:1042A00008BF70BD282818BF70BD0020CFF6FF7072
:1042B000E062256384F83D6084F83E502046FEF7B6
:1042C00011FA70BD84F83D602564416911F0400F1A
:1042D00005D00069616A0870606A401C60622068ED
:1042E000016821F0010101602046FDF714FCC9E7D7
:1042F00010B590F83D10026D6AB1026D012A1CD014
:10430000036D0022022B20D00068416911F0800F5C
:1043100018BF026110BDC16C0129816C07D0026811
:10432000C1F307211161016D491C016510BD0268CF
:10433000C9B21161016D891CF7E7816C0268C9B2CD
:104340001161016D491C016510BD22291CD0438DEE
:104350000BB1212921D0438D002B0CBF212910BD89
:1043600001684B6823F4E0634B6001680B6843F419
:1043700000730B6002634FF0200180F83D1080F85D
:104380003E20FEF7B3F910BD01680A6842F480725E
:104390000A60016D491C016510BD416A0268097817
:1043A0001161416A491C4162418D491E418510BD20
:1043B00070B588B0002400944FF410510194029419
:1043C000039404940594C4F2010140F2D470C2F243
:1043D000000006940160891581600473047501254D
:1043E00005614FF460214460C161FCF7F1FF0028D2
:1043F00018BFFCF713F80426CDE900454FF4E04060
:104400008DF815400496029506908DF81440694683
:1044100040F2D470C2F200000394FCF7CBFD0028F8
:1044200018BFFBF7FBFF0220CDE90050694640F2C0
:10443000D470C2F20000FCF7BDFD002818BFFBF7E6
:10444000EDFF1020009003206946019040F2D470E7
:10445000C2F20000FCF7AEFD002818BFFBF7DEFF3C
:104460001120CDE90006694640F2D470C2F2000086
:10447000FCF7A0FD002818BFFBF7D0FF08B070BD07
:10448000F0B587B0002400944FF4205101940294B9
:10449000039404940594C4F2010140F60400C2F2AE
:1044A000000006940160891581600473047501267B
:1044B00006614FF460214460C161FCF789FF002868
:1044C00018BFFBF7ABFF0225CDE9005603274FF4D9
:1044D000E0408DF815400497029606908DF8144040
:1044E000694640F60400C2F200000394FCF762FD46
:1044F000002818BFFBF792FF694640F60400C2F29D
:104500000000CDE90075FCF755FD002818BFFBF74A
:1045100085FF0420CDE90007694640F60400C2F299
:104520000000FCF747FD002818BFFBF777FF07B036
:10453000F0BD4FF4805008B5C4F20200416941F06B
:10454000010141614069002200F0010000900F214B
:104550000E20FEF786F90E20FEF774F90F210022D7
:104560000846FEF77EF9BDE808400F20FEF76AB95D
:104570002DE9F04186B000244FF48050C4F20200CF
:104580000094019402940394816941F010018161C7
:10459000816901F010010491816941F0200181617C
:1045A000816901F020010491816941F00401816178
:1045B000816901F004010491816941F00801816180
:1045C00080694FF4805600F00800C4F201060490A0
:1045D00000224FF460413046FDF792FA4FF44067F5
:1045E000C4F20107002241F202013846FDF788FAC1
:1045F0004FF40068C4F201080022F1144046FDF7B0
:104600007FFA4FF460400125CDE900050220CDE995
:10461000024069463046FDF77DF9C020CDE900042F
:10462000694640460294FDF775F9CDE900546946A4
:1046300038460294FDF76EF941F202000326CDE9F7
:104640000005CDE9024669463846FDF763F9E80200
:10465000CDE90005CDE9024669464046FDF75AF925
:1046600006B0BDE8F08110B54FF4A841C4F20001D6
:1046700040F63400C2F20000016048F2A061C0F2CE
:104680000101416000214FF480428160C0E90312C2
:1046900041618161C1610162FDF74CFF002808BFE3
:1046A00010BDBDE81040FBF7B9BE70B59AB000244C
:1046B00014941594179418941994169400940194D2
:1046C00003940494029405940694089409944FF476
:1046D00030560A940B940C940D940E94C4F2010677
:1046E00040F68805C2F200050F9440202E60C5E90F
:1046F00001404FF6FF70C5E903046C612846AC61C8
:10470000FEF75CFD002818BFFBF788FE4FF48050D1
:1047100014A9149040F68800C2F20000FEF792FD42
:10472000002818BFFBF77AFE40F68800C2F20000AE
:10473000FFF79DF8002818BFFBF770FE40F68800D1
:10474000C2F20000FEF7F8FE002818BFFBF766FE75
:10475000189418A940F68800C2F200001994FEF7D8
:10476000F6FC002818BFFBF759FE6020CDE90004D5
:1047700002940394049405940022694640F688004C
:10478000C2F200000694FEF771FF002818BFFBF785
:1047900045FE0422694640F68800C2F20000FEF79A
:1047A00065FF002818BFFBF739FE0822694640F66E
:1047B0008800C2F20000FEF759FF002818BFFBF77F
:1047C0002DFE0C22694640F68800C2F200000094DB
:1047D000FEF7EFFD002818BFFBF720FE08940A2023
:1047E000CDE90A404FF40050CDE90C40099408A9E6
:1047F00040F68800C2F200000F94FEF77FFC00280C
:1048000018BFFBF70BFE10941194129413942868B0
:10481000B0421CBF1AB070BD4FF48050C4F2020009
:10482000816941F008018161816901F00801079106
:10483000816941F0040181618069022400F0040073
:1048400007904FF46040CDE9100403254FF4406019
:1048500010A91395C4F20100FDF75CF84FF4E06075
:10486000CDE910044FF4006010A91395C4F20100C3
:10487000FDF750F81AB070BD10B54FF46051C4F296
:10488000010140F6D000C2F2000001604FF4164171
:104890004160002181600C22C160C0E90412816185
:1048A000C161FFF7CCFA002808BF10BDBDE8104079
:1048B000FBF7B4BDFEE7FEE770477047FDF765BF45
:1048C00030B595B000240694012105940B940A9408
:1048D00010940804029403940E94CDE900100C94F3
:1048E0000D9413941194129402250491CDE907506C
:1048F0004FF4E01009906846FEF706FA70B101F037
:1049000084FAAE2248F20831C0F6000148F218706D
:10491000C0F6000002F012F872B6FEE70F20CDE9F3
:104920000A054FF48060CDE90C4002210AA80E94DC
:10493000FEF7E2F870B101F068FAAE2248F20831F1
:10494000C0F6000148F21870C0F6000001F0F6FF52
:1049500072B6FEE74FF400401290109510A8FEF7D3
:1049600033F8002804BF15B030BD01F04EFAAE2276
:1049700048F20831C0F6000148F21870C0F6000095
:1049800001F0DCFF72B6FEE7704740F6080210B592
:10499000C4F20102106810F0400F40F29C31C2F2E4
:1049A0000001086814BF40F0040020F00400086013
:1049B000126812F0800F14BF40F0020020F00200D5
:1049C00040F60842C4F201020860126812F0010FBA
:1049D00014BF40F0010020F00100086040F29C315B
:1049E000C2F2000142F28810C2F2000002F076FB2F
:1049F00003F0D9F940F26434C2F20004606B6FF046
:104A00001001401C40F68802C2F200026063126886
:104A10001161022818BF10BD40F2D470C2F200002C
:104A2000FCF76FFC40F60400C2F20000FCF709FC42
:104A30000020606310BD30B402684FF43053C4F2FC
:104A400001034FF4806C4FF40064C4F2000CC4F214
:104A50000004984218BFB0F1804F03D0604518BFE2
:104A6000A04204D14D6822F0700245EA0202984249
:104A700018BFB0F1804F03D0604518BFA04205D1E8
:104A8000D1F80CC022F440724CEA0202D1F814C0F2
:104A900022F0800242EA0C0202608A68C2620A685E
:104AA0008262984204BF096901630121416130BCFF
:104AB000704710B5406A0021C185C184FFF705F831
:104AC00010BD10B5406A0168496990F84120C1F3F2
:104AD000C01100234FF0200C212A10D1002918BF4B
:104AE000C3840CD0016801F10C0252E8001F21F0D0
:104AF000C00142E80014002CF4D180F841C00168E4
:104B0000496990F84220C1F38011222A29D1002955
:104B100018BFC38525D001680C3151E8002F22F45D
:104B2000907241E80024002CF5D1016801F11402D3
:104B300052E8001F21F0010142E80014002CF4D1DA
:104B4000016B01290AD1016801F10C0252E8001F32
:104B500021F0100142E80014002CF4D180F842C08A
:104B60000363416C41F010014164FEF7AEFF10BDDC
:104B700010B50146406A096809684FF0000311F05A
:104B8000200F08BFC38534D1016801F10C0252E83F
:104B9000001F21F4807142E8001CBCF1000FF3D12A
:104BA0000168143151E8002F22F0010241E8002C85
:104BB000BCF1000FF4D1016801F1140252E8001FAA
:104BC00021F0400142E8001CBCF1000FF3D120218C
:104BD00080F84210016B01290BD1016801F10C0230
:104BE00052E8001F21F0100142E8001CBCF1000F48
:104BF000F3D14363016B012902D0FFF7D0F910BD57
:104C0000818DFEF791FE10BD10B5406A0121416310
:104C1000016B012902D0FFF7C3F910BD818D49084E
:104C2000FEF782FE10BD10B50146406A09680968AA
:104C300011F0200F04BF0021C18402D0FFF7FBF95F
:104C400010BD016801F1140252E8001F21F080013B
:104C500042E80013002BF4D1016801F10C0252E884
:104C6000001F41F0400142E80013002BF4D110BDB9
:104C700010B5406AFFF713FA10BD08B590F842105E
:104C800022291CBF022008BD8268B2F5805F04BFE4
:104C900001690029816A18D0B2F5805F1DD0002A11
:104CA00004BF0269002A18D00268526802F07F022D
:104CB0000A70816A01F101018162C18DA1F10101D6
:104CC0000904090CC1850BD025E002685268C2F3C3
:104CD00008020A80816A891CEEE702685268E7E7E9
:104CE0000168CA6822F02002CA600168CA6822F41A
:104CF0008072CA6001684A6922F001024A6120217B
:104D000080F8421000214163026B012A08BF016351
:104D100003D0FFF744F9002008BD016801F10C023F
:104D200052E8001F21F0100142E80013002BF4D1DB
:104D300001680A6812F0100F02D00A6849680091F1
:104D4000818DFEF7F1FDE6E770B504460068016964
:104D5000E26821F44051114301612169A0680843D0
:104D6000616901432068C26822F4037222F4A052F0
:104D70001143C16020684169A26921F44071114367
:104D800041612068A0F18041B1F59C313FD0FDF731
:104D900094FF00BF00EBC00101EB0012606848F215
:104DA0001F518000B2FBF0F3C5F2EB11A1FB0353DE
:104DB000B2FBF0FC5B096FF018056B430CEB830C46
:104DC000322303EB0C1CA1FB0C5C4FEA5C1C0CF0C7
:104DD000F005B2FBF0FCA1FB0C6C4FEA5C1C05EB90
:104DE0000C1CB2FBF0F5B2FBF0F0A1FB0020400977
:104DF0006FF01802504305EB800003EB0010A1FB9D
:104E000000102168C0F343106044886070BDFDF756
:104E100067FFBFE738B581620446828500201346EC
:104E20006064222284F8422044F67132C0F6000207
:104E3000D4F83CC0CCF8282044F60942C0F6000261
:104E4000D4F83CC0CCF82C2044F6C322C0F60002B3
:104E5000D4F83CC0CCF83020E26B506320680A469E
:104E6000011DE06BFCF70BFD2068016840680090B5
:104E7000206950B1206800F10C0151E8000F40F4A6
:104E8000807041E80002002AF4D1206800F114018A
:104E900051E8000F40F0010041E80002002AF4D17F
:104EA000206800F1140151E8000F40F0400041E893
:104EB0000002002AF4D1002038BD40F6D000C2F232
:104EC0000000FEF738BEFEE72DE9F0470DF1200C9B
:104ED0009CE8F00745F6AF3CC0F6000CC0F800C0F7
:104EE000C0F804C0C0F808C0C0F80CC044F64D7C3F
:104EF000C0F6000CC0F810C044F62B7CC0F6000CC5
:104F000000F1180EC0F814C08EE80E0600F13C0E39
:104F1000002106668EE8B20100F02CFE05F10C00BF
:104F20003269BDE8F0470121104710B5044600F092
:104F300045FE206CC0688047002808BF10BD206C6B
:104F4000406A8047216C0020087010BD016A426BE6
:104F50000A60B0F852208A80026E1288CA80406CC3
:104F60000069886070478269416C52688B6893421F
:104F700086BF4A6893427047C36B002243638A60CE
:104F8000406C42607047026C00211170006C406AF6
:104F9000004770B5C66985690446B6F9081005F181
:104FA0000C02543001F00CFBB6F90A1005F11002A6
:104FB00004F15A0001F004FBF068A9698842DBBFE4
:104FC000696981426166606670BD10B50446C06C57
:104FD00000688047A06C0068BDE81040004730B50D
:104FE000026C89B00121117085690021044605F128
:104FF0001C00CDE9061004910591236C04F15400C6
:10500000821C0833CDE90032CDE90201A06C0023F7
:10501000121FD0F804C0216E901DE047A16C206ED5
:105020008968B0F90000884704F15A02911C05F123
:105030002C03081F8DE80F00606C226E00F1100138
:10504000E06C0023D0F804C004F16400E047E06C99
:10505000806809B0BDE830400047006C0021017055
:10506000704770B5C56986690446B5F9081006F140
:105070000C02543001F0A4FAB5F90A0006F110014F
:1050800001F092FAA4F8580070BD806C00680047E7
:1050900010B5026C88B001211170816904468869DD
:1050A000E0664869A06601F11C000021CDE9061008
:1050B00004910591236C04F15400821C0833CDE95E
:1050C0000032CDE90201A06C0023121FD0F804C009
:1050D000216E901DE047206EA16CB0F90000896838
:1050E00008B0BDE810400847006C0021017070470F
:1050F00010B5C16904468269B1F9080002F10C01DA
:1051000001F052FAA4F8520010BD8169CA89A0F8D2
:1051100056208989A0F85410006C01210170704755
:10512000006C0021017070472DE9FF4F93B00D46D0
:105130000446DDE92A70DDE92716DDE925A945F2F7
:10514000E712C0F60002DDF884B0DDF8A480226129
:10515000C4E92F100A6900219047DDE92301CDE958
:105160000301CDE905A9209922980091CDE901B06C
:10517000DDE9152329462046FFF7A6FECDF820805D
:1051800004F15000CDE90970801C071D04F154089A
:105190000D97CDE90B08D4F8BC000E9004F1720015
:1051A0000F90801C109005F138001190002208A982
:1051B00004F1840000F0FEFEA66700200297CDE90E
:1051C00003800590216C0831CDE90001D6F83CC080
:1051D000D4F8BC203B1F04F1700105F13800E04712
:1051E00017B0BDE8F08F10B50446FFF7AFFED4F856
:1051F000BC10206A0988818110BD70B5C5698669B7
:105200000446B5F9081006F10C02543001F0D8F943
:10521000B5F9100006F1440101F0C6F9A4F87000D8
:1052200070BD806F806B004710B581690446B1F88E
:105230004600A4F87400B1F84400A4F87200A16F0D
:10524000D4F8BC00096CB0F900008847216C01203B
:10525000087010BD006C00210170704710B5044645
:10526000D4E906204432B0F9101004F1720001F0C4
:10527000A7F92046BDE81040FFF78BBE10B50446E5
:10528000D4E906204432B0F9101004F1720001F0A4
:1052900097F92046BDE81040FFF77BBE843000F050
:1052A00036BE10B50446C06C00688047A06C00682C
:1052B000BDE81040004770B50446806988B0C189D8
:1052C000A4F856108089A4F85400002104F1840049
:1052D00000F003FE206C012504F198030570206C9A
:1052E000A6690570002006F14801CDE9060104F128
:1052F000540105908A1CCDE90032CDE902100490DA
:10530000A06C0023216ED0F804C0921F04F1580055
:10531000E047A16C206E8968B0F90000884704F16D
:105320005A02911C06F15803081F8DE80F00606CAB
:10533000226E00F11001E06C0023D0F804C004F1EB
:105340006400E047E06C80688047A069C189A4F8E8
:1053500056108089A4F85400002104F1840000F064
:10536000BCFD206C057008B070BD006C00210170A0
:105370007047806F806B004710B50446C06C0068B2
:105380008047A06C0068BDE81040004770B5044637
:10539000806988B0C189A4F856108089A4F85400A7
:1053A000002104F1840000F098FD206C01250570B7
:1053B000206CA6690570002006F16401CDE90601A4
:1053C0000490059004F15401A36F8A1C3433CDE995
:1053D0000032CDE90210A06C0023216ED0F804C089
:1053E0001A3204F15800E047A16C206E8968B0F9C8
:1053F0000000884704F15A02911C06F17403081F4B
:105400008DE80F00606C226E00F11001E06C00234B
:10541000D0F804C004F16400E047E06C8068804785
:10542000A069B0F84610A4F87410B0F84400A4F8CD
:105430007200A16FD4F8BC00096CB0F90000884775
:10544000206C057008B070BD006C002101707047C1
:1054500010B50446D4E906204432B0F9101004F126
:10546000720001F0ADF82046BDE81040FFF7F9BD2D
:1054700010B50446D4E906204432B0F9101004F106
:10548000720001F09DF82046BDE81040FFF7E9BD2D
:10549000843000F03CBD806C0068004710B50446C5
:1054A000806988B000F148010020CDE9060104F1CF
:1054B000540105908A1C04F19803CDE90032CDE92E
:1054C00002100490A06C0023216ED0F804C0921F3B
:1054D00004F15800E047A16C206E8968B0F9000023
:1054E0008847A069C189A4F856108089A4F854009F
:1054F000002104F1840000F0F0FC216C0120087010
:1055000008B010BD006C002101707047806F806B87
:105510000047806C0068004710B50446806988B079
:1055200000F164010020CDE906010490059004F12A
:105530005401A36F8A1C3433CDE90032CDE9021047
:10554000A06C0023216ED0F804C01A3204F1580078
:10555000E047A16C206E8968B0F900008847A06917
:10556000B0F84610A4F87410B0F84400A4F8720023
:10557000A16FD4F8BC00096CB0F900008847216C19
:105580000120087008B010BD006C00210170704748
:1055900070B5C56986690446B5F9080006F10C01C5
:1055A00001F002F8A4F85000B5F9101006F1440219
:1055B00004F17200BDE8704001F002B8843000F0E0
:1055C000A6BC10B581690446C889A4F8560088892C
:1055D000A4F85400002104F1840000F07EFC216C4A
:1055E0000120087010BD006C00210170704700227E
:1055F0008263C263026442648264C264026541667B
:1056000091F82C10012303FA01F1816680F86220E1
:10561000704710B540F2D470C2F20000FBF732FCC4
:1056200040F60400C2F20000FBF72CFC00221146F9
:105630001220FDF716F9BDE810401220FDF702B95F
:105640002DE9F007426E0346D2F800C051F82CC095
:10565000C0F800C04FF0030C5468BCF1010C51F8C5
:1056600024405C6052F8084F51F8244043F8084F3A
:10567000F2D190F8621031B3B0F800C0848B426E62
:10568000ACEB040C034632F81C4F00F11C010CFB80
:1056900004FC20F854CF4FF0030C9C888D88641BC9
:1056A00055886C43448033F8084F31F8085F641B19
:1056B00032F8045F6C4320F8044FBCF1010CECD1CC
:1056C000BDE8F0077047D0F800C0836B00F13801E7
:1056D000634483630246032351F804CF54685B1E7E
:1056E000A44441F804CB52F8084FD1F800C0A444B8
:1056F000C1F800C0F0D1816E491E81661CBFBDE8B3
:10570000F007704700F15402416E072501F11C03B8
:10571000CE6A4FF00109771E00F11C0C00F138042D
:10572000014609FA07F700BF54F8048BB84428FA79
:1057300006F808F101084CF8048B31F804AB6D1E33
:10574000AAEB080833F802AB08FB0AF822F8028B30
:10575000EAD100228263C263026442648264C2644A
:105760000265416E91F82C1009FA01F1816680F80A
:10577000622080F86290BDE8F00770472DE9F05F85
:1057800040F21008C2F2000898F80100002808BF93
:10579000BDE8F09FD8F81400022804D1012088F851
:1057A000020001F07DF901F003F9D8F80400006867
:1057B0008047D8F80400001DC8F80400D8F8081085
:1057C000884202BF40F24400C2F20000C8F8040060
:1057D00040F6A015C2F20005AA464FF00009DAF81B
:1057E0000400A8421CBF40F2280BC2F2000B2ED0CE
:1057F00098F801002C6828B3E769D4E90C013E68E9
:10580000B14218D010B1816820468847002E1CBFD5
:10581000606AB0420CDDA06A50F8267047B1796822
:1058200020468847396820468847C4E90C7609E055
:10583000C4E90CB906E0796821B1016820468847BF
:10584000C7F80490DAF804002D1DA842D0D100F06A
:1058500084FA01F002F8D8F81400022804BF88F88E
:10586000029001F016F9D8F81400032804BF88F854
:10587000029001F00EF998F8000001280DD000F018
:10588000C4FA40F20B2248F27A31C0F6000148F225
:105890002C70C0F6000001F051F800F08EFA0220E2
:1058A00088F80000BDE8F09F2DE9F04100F0F7FF17
:1058B00040F6A410C2F20000071F041F40F228089F
:1058C000C2F200087860206860B900F09EFA4422B5
:1058D00048F26331C0F6000148F22C70C0F60000B7
:1058E00001F02CF82068006860B900F08EFA4522BB
:1058F00048F26331C0F6000148F22C70C0F6000097
:1059000001F01CF82068406860B900F07EFA462279
:1059100048F26331C0F6000148F22C70C0F6000076
:1059200001F00CF82068806860B900F06EFA472238
:1059300048F26331C0F6000148F22C70C0F6000056
:1059400000F0FCFF2068C06860B900F05EFA4822F1
:1059500048F26331C0F6000148F22C70C0F6000036
:1059600000F0ECFF2068806960B900F04EFA49222F
:1059700048F26331C0F6000148F22C70C0F6000016
:1059800000F0DCFF2068C06960B900F03EFA4A22EE
:1059900048F26331C0F6000148F22C70C0F60000F6
:1059A00000F0CCFF2068006A60B900F02EFA4B22AC
:1059B00048F26331C0F6000148F22C70C0F60000D6
:1059C00000F0BCFF2068406960B900F01EFA4C226C
:1059D00048F26331C0F6000148F22C70C0F60000B6
:1059E00000F0ACFF2068416A00290EDD806A60B9D2
:1059F00000F00BFA4E2248F26331C0F6000148F283
:105A00002C70C0F6000000F099FF2068C0F83080CC
:105A10002168D1E9092000EB8200C86221688E6A02
:105A2000B04270D03568002D68D0286860B900F0A9
:105A3000ECF9552248F26331C0F6000148F22C70AF
:105A4000C0F6000000F07AFF686860B900F0DDF988
:105A5000562248F26331C0F6000148F22C70C0F6BD
:105A6000000000F06BFFA86860B900F0CEF9572283
:105A700048F26331C0F6000148F22C70C0F6000015
:105A800000F05CFFE86860B900F0BFF9582248F206
:105A90006331C0F6000148F22C70C0F6000000F03F
:105AA0004DFF286960B900F0B0F9592248F263311E
:105AB000C0F6000148F22C70C0F6000000F03EFF76
:105AC000686960B900F0A1F95A2248F26331C0F662
:105AD000000148F22C70C0F6000000F02FFFA8690A
