:020000040800F2
:10000000D0220020C90100085B310008132D000830
:1000100059310008F10300086D38000800000000A5
:100020000000000000000000000000005F31000838
:1000300037040008000000005D310008613100084D
:10004000E3010008E3010008E3010008E301000800
:10005000E3010008E3010008E3010008E3010008F0
:10006000E3010008E3010008E3010008E3010008E0
:10007000E3010008E3010008F5030008010400089B
:10008000E3010008E3010008CD020008E3010008D5
:10009000E3010008E3010008E3010008E3010008B0
:1000A000E3010008E3010008E3010008D53100087E
:1000B000E3010008E3010008E3010008E301000890
:1000C000E3010008E3010008E3010008E301000880
:1000D000E301000861380008E3010008E3010008BB
:1000E000E3010008E3010008E301000800F002F862
:1000F00000F05AF80AA090E8000C82448344AAF168
:100100000107DA4501D100F04FF8AFF2090EBAE865
:100110000F0013F0010F18BFFB1A43F0010318473B
:100120001C6500003C6500000A444FF0000C10F80C
:10013000013B13F0070408BF10F8014B1D1108BF65
:1001400010F8015B641E05D010F8016B641E01F805
:10015000016BF9D113F0080F1EBF10F8014BAD1C55
:100160000C1B09D16D1E58BF01F801CBFAD505E073
:1001700014F8016B01F8016B6D1EF9D59142D6D3CD
:10018000704700000023002400250026103A28BFF5
:1001900078C1FBD8520728BF30C148BF0B607047F9
:1001A0001FB51FBD10B510BD00F056F81146FFF782
:1001B000F7FF05F061FB00F074F803B4FFF7F2FFFE
:1001C00003BC00F07BF8000009488047094800475D
:1001D000FEE7FEE7FEE7FEE7FEE7FEE7FEE7FEE7F7
:1001E000FEE7FEE704480549034A054B7047000057
:1001F000D1310008ED000008D01E0020D0220020E0
:10020000D01E00204FF0000200B5134694469646DB
:10021000203922BFA0E80C50A0E80C50B1F1200119
:10022000BFF4F7AF090728BFA0E80C5048BF0CC0C7
:100230005DF804EB890028BF40F8042B08BF704725
:1002400048BF20F8022B11F0804F18BF00F8012B97
:100250007047704770477047754600F02BF8AE4600
:1002600005006946534620F00700854618B020B5C2
:10027000FFF7B8FFBDE820404FF000064FF0000741
:100280004FF000084FF0000B21F00701AC46ACE83E
:10029000C009ACE8C009ACE8C009ACE8C0098D46AB
:1002A000704710B50446AFF300802046BDE810400B
:1002B000FFF783BF00487047701E002001491820D7
:1002C000ABBEFEE726000200704700000F4910B5E4
:1002D0000868426822F0800242600968CA6B0C48D4
:1002E00002600A6C4260496C81600A490968CA6B05
:1002F000C260096C01610146074803F00FFE04F07B
:10030000FBFCBDE8104003F069BE00007006002051
:10031000141B0020A0060020C41C002070B5044659
:1003200000688168C943C90717D1816821F00101BC
:10033000816001F07BFA05460AE000BF01F076FA21
:10034000401B022804D920688068C043C00706D03B
:1003500020688068C043C007F0D0002070BDA06A4C
:1003600040F01000A062E06A40F00100E06201206D
:1003700070BD0000F8B5002604460096006881684C
:10038000C943C9072DD0816841F001018160164839
:1003900016490068B0FBF1F000E0401E0090002814
:1003A000FBD101F043FA054616E000BF01F03EFA2A
:1003B000401B022810D920688068C043C0070BD0BA
:1003C000A06A40F01000A062E06A40F00100E06224
:1003D00084F824600120F8BD20688068C043C0070D
:1003E000E4D10020F8BD00000C00002040420F00C6
:1003F000FEE70000014801F013B8000034080020B7
:10040000014801F00DB80000F007002030B590F869
:1004100040500124AC40C56B6C6004686360436865
:10042000102B036803D099600068C26030BD9A60E9
:100430000068C16030BD704704F0DCF8B0220349A9
:1004400003A004F014FD72B6FEE700001C62000871
:100450002E2E2F436F72652F5372632F6D61696E5D
:100460002E63000018B504460748C0880028684677
:1004700003D000F04BFC009903E000F03FFCBDF816
:100480000010216018BD0000DC010020034AD28862
:100490000AB100F04BBC89B200F042BCDC01002084
:1004A00006480649806A2C31B0F90000B1F9001005
:1004B000884201DB0120704700207047DC010020EA
:1004C00005480549806A2C3100880988884201D393
:1004D0000120704700207047DC01002005480549D5
:1004E000806A2C3100680968884201DB012070476E
:1004F00000207047DC01002005480549806A2C3146
:1005000000680968884201D30120704700207047C5
:10051000DC01002006480649806A2C3190F9000071
:1005200091F90010884201DB0120704700207047DC
:10053000DC01002005480549806A2C3100780978E3
:10054000884201D30120704700207047DC01002061
:100550000346084604E000BF10F8011B03F8011B26
:10056000521E92B2F8D2704770B58B180AE000BFE5
:1005700013F8016B11F8014B05783440B5432C4357
:1005800000F8014B521E92B2F2D270BD04E000BFDF
:1005900011F8013B00F8013B521E92B2F8D27047AD
:1005A00004E000BF11F8013B00F8013B521E92B27B
:1005B000F8D2704700B5002100F8011B032100F8B4
:1005C000011B002100F8011B012100F8031B02217F
:1005D00000F8021C002100F8011C402100F8011B5A
:1005E0004FF47A6100F09CFB642100F8011B80212C
:1005F00000F8011B06A100220B7800F8013B0B78E4
:1006000003B1491C521C92B2192AF5D300BD000057
:10061000524F424F20535041434520445245414D93
:1006200020467265654D41535445522044726976A7
:10063000657200000D4910B50A68D20707D0096835
:10064000890706D55FF0870100F8011B10BD8821DE
:10065000FAE7064C0021243C00F8011B216BFFF750
:1006600015FFE189BDE8104000F05ABB00020020F0
:1006700007490A68D20704D00968890703D5012110
:1006800002E0882100E0022100F8011B7047000011
:100690000002002006490020088301F138000168AB
:1006A00021F001010160016821F002010160704741
:1006B000DC01002038B500F08DF904460B480068D5
:1006C000C0070AD0E00701D000F0F2FAA00703D576
:1006D00004F089FEADF8000038BDA007FCD504F099
:1006E00082FEBDE8384000F00BB900001402002083
:1006F00010B5044632480021C18021780A292BD048
:1007000008DC0A2916D2DFE801F015234B512149F4
:100710004F15293FC22931D006DC0B2932D0C02920
:1007200048D0C12906D125E0C3291FD0C52919D039
:10073000C9292DD081212170601CA0423ED0001B10
:1007400081B22046BDE8104000F05AB90121C180B5
:10075000204600F037F8F0E70121C180204600F084
:100760001FFAEAE7204600F045F8E6E72046FFF7E3
:100770007FFFE2E7204600F04BFADEE7204600F07C
:1007800071FADAE70121C180204600F061F9D4E76F
:100790000121C1802046FFF74DFFCEE70121C18036
:1007A000204600F0CEFAC8E70121C180204600F0C3
:1007B000DAFAC2E72046FFF7FDFEBEE710BD0000F3
:1007C000DC01002038B50446801C10F8015B0146AE
:1007D0006846FFF747FE402D204603D9842101706B
:1007E000601C38BD00210170601C2A460099FFF78B
:1007F000D7FE38BDF0B50D4D297939B100210C4E29
:1008000000F8011B0C46A6F120070BE0882100F838
:10081000011BF0BD36F8142057F82410FFF7C0FE76
:10082000641CE4B229798C42F4D3F0BDDC010020D1
:10083000C01A002003480068800701D500F004B802
:1008400070470000000200202DE9F0412A4C208A68
:1008500018B1401E2082BDE8F081284FA089208277
:100860000025A7F120080CE037F8156058F825108E
:100870003246E069FFF78AFEE0696D1C3044EDB254
:10088000E06160788542EFD3E0891B4D401CE08138
:10089000D4E907012435884207D3206BE06128683A
:1008A00020F0080028600020E08128680007D2D4EA
:1008B0002868400712D4606B80B1804721780229F4
:1008C00006D038B12868C00608D500F0E3F905E085
:1008D0000028F7D0286840F01000286028684007FA
:1008E000B9D5608A10B1401E6082B4E7286820F054
:1008F00002002860AFE70000DC010020F00A0020C1
:1009000030B432492B2806D10A6812071FD50A686D
:1009100022F008020A600A684FF0000413072B4A0D
:10092000A2F1380221D52A4B03F8010B1364507150
:1009300003231483B3EB901F0DD10B6823F0100336
:100940000B60062303EAD000401C108307E0086810
:1009500040F0080006E0086840F0100008600868F1
:1009600020F00800086030BC70470B68DB0605D536
:10097000831C13830B6823F010030B60118B002979
:10098000F1D05379491E0D0403441049DBB2537171
:100990002D0CA1F138011583096C09D00029E2D092
:1009A0000B4B403399420FD201F8010B1164DAE787
:1009B00021B12BB1822030BC00F01AB88320FAE7B5
:1009C00030BC0348FFF794BE1464CCE71402002047
:1009D000D01A002010B5002404F000FD00B102245C
:1009E00004F01EFD08B144F00104204610BD0000D3
:1009F000024908700121014800F002B8D01A002015
:100A000070B5124C00231A46E06305E010F8015B54
:100A1000521C2B44DBB2D2B28A42F7D3DA43521CC7
:100A200002700A48491C3830E182016841F0010136
:100A30000160016821F002010160016821F00401F8
:100A400001602B2004F0DDFC70BD0000DC01002003
:100A50002DE9F04FDFF828A14FF000090446AAF86D
:100A60000090AAF124074FF47A61B9824549801CAD
:100A700039633A4610F8011B1170014602F1080073
:100A800000F03CF9014607F10A0000F037F9014691
:100A900007F10C0000F032F9014607F12800FFF7DA
:100AA000E1FCBA1C10F8011B1170521C10F8011B5C
:100AB0001170014602F1290000F028F97A1C10F8A3
:100AC000011B117009B1082901D9852017E0DFF851
:100AD000B4B000263546ABF1100BB84613E00778EA
:100AE000411CF01986B227482BF81570303800EBFE
:100AF0008500FFF7B7FC0FB1082F02D986202070C0
:100B00003BE06D1CEDB298F801108D42E7D3C8F8B8
:100B1000349098F800104046C9B18178012904D07A
:100B2000022908D0042918D10BE0C17809B116496F
:100B30000CE016490AE0C17809B1154906E01549EB
:100B400004E0C17809B1144900E014494163018906
:100B5000828A714389B2914202D9204686210BE0F4
:100B6000026B1144C8F82010DAF8001041F00101BE
:100B7000CAF80010204600210170601CBDE8F08F0B
:100B800000020020000B00201505000835050008B4
:100B9000A1040008C1040008DD040008F9040008ED
:100BA0002DE9F047DFF8608004460021801C88F8BA
:100BB000041010F8016B0EB1082E02D920468521D1
:100BC0001EE0DFF848900025A9F1200A12E007781E
:100BD000411C29F815700AEB8500FFF743FC0FB1A3
:100BE000082F05D9862004F8010B2046BDE8F087C0
:100BF0006D1CEDB2B542EAD388F8046020460021AE
:100C00000170601CF2E70000DC010020C01A002027
:100C100013490A68D20706D00A68920705D5012150
:100C200000F8011B70478821FAE70D4A243A136B3C
:100C3000D3610023D38113820A6822F004020A6080
:100C40000A6822F010020A600A6842F008020A608C
:100C50000A6842F002020A6000F8013B7047000097
:100C60000002002002460A4800B50168C90705D005
:100C70000068800705D41046022106E0104688214E
:100C800003E000F007F8104600210170501C00BD81
:100C90000002002005480168490706D4016841F0B8
:100CA000040101602438418941827047000200201C
:100CB00070B5114DE88AD0B1E86B0478204604F095
:100CC000A0FB05F138002B2C02D10168490709D59A
:100CD000E98A491EE982E96B491CE963016821F050
:100CE000040102E0016841F00401016070BDBDE84B
:100CF0007040FFF7CFBC0000DC01002002460878FE
:100D00001070481C10F8011B51707047042203E05A
:100D100011F8013B00F8013B521EF9D2084670471A
:100D200000F8011B090A00F8011B704703B501A96F
:100D3000042203E011F8013B00F8013B521EF9D2F6
:100D40000CBD38B50446801C10F8015B01466846AE
:100D5000FFF788FB01462A460098FFF7F9FB0021C0
:100D60002170601C38BD38B50446801C10F8015B4A
:100D700001466846FFF776FB01462A460098FFF7D2
:100D8000F3FB00212170601C38BD0000F8B5002580
:100D90000446009590F8240001280BD0012084F827
:100DA00024002046FFF7BAFA2046FFF7E3FA0600D0
:100DB00002D050E00220F8BDA06A20F4885040F034
:100DC0000200A062022000F0CFFD25490968B1FBB6
:100DD000F0F0400000E0401E00900028FBD12068A9
:100DE000816841F00801816000F020FD074608E0BD
:100DF00000F01CFDC01B0A2803D92068806800078A
:100E000015D4206880680007F2D42068816841F01A
:100E10000401816000F00AFD074612E000F006FDC3
:100E2000C01B0A280DD920688068400709D5A06A30
:100E300020F0020040F01000A06284F8245001204D
:100E4000F8BD206880684007E8D4A06A20F002005E
:100E500040F00100A06284F824503046F8BD000044
:100E60000C000020F8B50022009290F8244083681E
:100E70001646012C1CD0012480F82440D3B14D68C3
:100E80000B691F249D4226D81F055B1BC3F103037A
:100E90000D6803EB83039D40A7F580172F439C400B
:100EA000036844F440159C6BAC4327439F631EE0EA
:100EB0000220F8BD4B68012B05D0826A42F0200267
:100EC0008262012213E003689C6B0D686FF31504C6
:100ED00044EAC5340AE05B1BC3F1030303EB83035D
:100EE0009C40036844F440159C6BAC439C630368CE
:100EF0009C68E443E40706D09C6847F20105AC43D4
:100F00008D692C439C604B7D012B08D18B69B3F517
:100F1000E04F08D0826A42F02002826201220B7DFB
:100F2000012B06D00CE003685C6844F480645C60CC
:100F3000F5E74B7DA3B1826A42F020028262012272
:100F40000B68072405680A2B10D3EF680A3B03EBF4
:100F500043039C40A7438C689C402743EF600EE00E
:100F600003685C6844F480545C60E9E72F6903EB34
:100F700043039C40A7438C689C4027432F610B6828
:100F8000102B01D0112B04D103689C6844F4000499
:100F90009C604B68012B10D0022B16D0032B0368EA
:100FA0001BD01C6ACD686FF30B042C431C620B68CA
:100FB000102B19D0112B17D037E003685C69CD686E
:100FC0006FF30B042C435C61F1E703689C69CD6807
:100FD0006FF30B042C439C61E9E7DC69CD686FF388
:100FE0000B042C43DC61E2E7124C0368A34217D1E7
:100FF0009C68240219D49C6844F400049C6009682D
:10100000102912D10C490D4B0968B1FBF3F101EB2A
:101010008101490000E0491E00910029FBD104E054
:10102000816A41F020018162012280F8246010462B
:10103000F8BD0000002401400C00002040420F00D9
:1010400070B5044690F8240001280DD0012084F8E2
:1010500024002046FFF78EF901004FF0000005D074
:1010600084F82400084670BD022070BDA26A42F2D6
:1010700001039A4342F48052A262194A2568194B2F
:1010800095421AD11E6816F4702F16D0A66A46F43F
:101090008016A662A66AF60500D4E06284F82400F1
:1010A0006FF004002860206844686405DAD484681E
:1010B000C4F30234072C04D009E0A66A26F4801693
:1010C000E7E7904208D11A6812F4702F04D08268C2
:1010D00042F400428260C5E7826842F40212F9E7F6
:1010E000002801400424014070B5044690F8240013
:1010F00001280DD0012084F824002046FFF73AF99A
:1011000001004FF0000005D084F82400084670BDAF
:10111000022070BDA26A42F201039A4342F4805257
:10112000A2621C4A25681C4B95421FD11E6816F40A
:10113000702F1BD0A66A46F48016A662A66AF60532
:1011400000D4E06284F824006FF004002860206876
:10115000456845F080054560206844686405D5D43D
:101160008468C4F30234072C04D009E0A66A26F48C
:101170008016E2E7904208D11A6812F4702F04D06A
:10118000826842F400428260C0E7826842F4021240
:10119000F9E7000000280140042401402DE9F04156
:1011A0004FF0000704003D467ED0A06A002628B913
:1011B000E66284F82460204600F07EF82046FFF7BF
:1011C000ADF8A16AC90600D420B1A06A40F01000B1
:1011D000A06269E0A16A21F4885141F00201A16294
:1011E0006268E169237B0A4347EA43010A43A16835
:1011F0004FF48077B94209D0012907D05FF0000190
:1012000094F814C0BCF1010F02D00AE03946F7E7A8
:10121000F3B1A36A43F02003A362E36A43F001033E
:10122000E3622368D3F804C02CF4694C4CEA010C47
:10123000C3F804C021688B68DFF870C003EA0C03B0
:1012400013438B60A168B9420BD0012909D00CE08F
:10125000DFF85CC0A3690CEB43330B4343F400613C
:10126000DFE7218A0D05A5F580152168CB6A23F4F7
:1012700070032B43CB62216889680E4B1940914261
:1012800008D1E662A16A21F0020141F00101A162E8
:10129000BDE8F081A06A20F0020040F01000A062DA
:1012A000E06A40F00100E0620120F1E7FDF7E1FFB4
:1012B00000E0FFFFFE0E1FFF10B586B00021009179
:1012C0000191029103911A4C03681A4903221A48AA
:1012D000A34212D18B6943F400738B618B6903F4D1
:1012E000007304938B6943F004038B618969009256
:1012F00001F004010192049115E0104CA34215D1B4
:101300008B6943F480638B618B6903F4806304937E
:101310008B6943F004038B61896901F00401049136
:101320001C21CDE90012694600F08AF906B010BD13
:101330000024014000100240000801400028014044
:1013400010B590F821100022022905D004218163F4
:1013500080F82020012010BD01680B6823F00E03E7
:101360000B6001680B6823F001030B6090F84030BC
:10137000C46B012101FA03F3636080F8211080F847
:101380002020104610BD000010B590F82110002458
:10139000022903D00421816301243DE001680A6829
:1013A00022F00E020A6001680A6822F001020A6057
:1013B0001A4A0168914201D1012121E0174A1432F1
:1013C000914201D110211BE0144A2832914201D1EF
:1013D000891515E0114A3C32914201D189140FE080
:1013E0000E4A5032914202D14FF4803108E00B4A4C
:1013F0006432914202D14FF4801101E04FF08071CC
:10140000064A083A5160012180F82110002180F835
:101410002010416B01B18847204610BD08000240F2
:101420002DE9F05FC16B0C6801680B68D0F840C013
:10143000042202FA0CF2494DDFF824A1494E4A4F2A
:10144000DFF828B1DFF828E122422CD05A072AD54C
:101450000A68920603D40A6822F004020A6001684E
:10146000A94201D1042219E0514501D1402215E0E1
:10147000B14202D14FF4806210E0B94202D14FF480
:1014800080420BE0594502D14FF4802206E07145BD
:1014900002D14FF4800201E04FF080622F490839F9
:1014A0004A60C16A3BE04FF0020808FA0CF818EAFB
:1014B000040F4FF000094FF0010235D05FEA837846
:1014C00032D50B689B0605D40B6823F00A030B602A
:1014D00080F821200168A94201D1022219E051457A
:1014E00001D1202215E0B14202D14FF4007210E088
:1014F000B94202D14FF400520BE0594502D14FF4EA
:10150000003206E0714502D14FF4001201E04FF0C5
:101510000072124908394A6080F82090816A0029D7
:101520001AD0BDE8F05F0847082505FA0CF52542FA
:1015300012D01B0710D50B6823F00E030B6090F838
:101540004010C36B02FA01F15960826380F82120D8
:1015500080F82090016BE2E7BDE8F09F08000240B0
:101560001C0002403000024044000240580002408B
:101570006C00024030B528B308C81349142219443E
:10158000B1FBF2F18900C163104981630221417707
:101590001A6843F6F0718A43D0E900142143D0E978
:1015A00002452C4321430469214344692143846952
:1015B00021431143196000214163012242770177E1
:1015C000084630BD012030BDF8FFFDBF00000240DD
:1015D00070B5044690F82000002501280CD00120A9
:1015E00084F8200094F821600020012E06D084F8B1
:1015F00020000225284670BD022070BD022684F816
:101600002160A0632068066826F001060660204677
:10161000FEF7FCFEE06A00282068016802D041F075
:101620000E0106E021F0040101602068016841F02C
:101630000A0101602068016841F001010160D9E7F9
:101640002DE9F84FDFF8B8910024A9F1040B2346E7
:101650000F2709F1040AABF1040EC9E00125A540EA
:101660002A40AA427DD1674ED1F804C0ACEB0608EF
:10167000B44532D014DCBCF1030F3AD009DCBCF124
:10168000000F2AD0BCF1010F1CD0BCF1020F31D1E8
:101690001DE0BCF1110F17D0BCF1120F2AD119E0D7
:1016A000B8F5881F19D006DCB8F5803F15D0B8F51D
:1016B000801F1FD111E0B8F5001F0ED0B8F5041F30
:1016C00018D10AE0CB6815E0CB681B1D12E0CB688F
:1016D00008330FE0CB680C330CE08B682BB1012B87
:1016E0004FF0080303D0456104E0042302E00561E4
:1016F00000E00023FF2A01D8064601E000F10406BD
:101700004FEA840501D9A5F12005D6F8008007FA33
:1017100005FC28EA0C0803FA05F548EA0508C6F8AE
:1017200000804D68ED0062D5374DAE6946F0010688
:10173000AE61AD6924F0030605F001050095334D57
:1017400006EB050CDCF80850A607360F07FA06F87A
:1017500025EA0805DFF8B880404503D14FF00008BE
:1017600017E044E0DFF8AC80404502D14FF00108BB
:101770000FE0DFF8A480404502D14FF0020808E0F6
:10178000DFF89880404502D14FF0030801E04FF0A8
:10179000040808FA06F848EA0508CCF808804D68FD
:1017A000D9F80060ED024D4601D5164300E096439E
:1017B0002E604D68DAF80060AD02554601D516433B
:1017C00000E096432E604D68DBF80060AD035D4697
:1017D00001D5164300E096432E604D68DEF80060A8
:1017E000ED03754601D5164300E096432E60641C58
:1017F0000D682A46E5407FF431AFBDE8F88F000060
:1018000008040140000011100010024000000140D7
:1018100000080140000C014000100140001401408C
:101820000AB1016170470904FBE7000001488068C4
:1018300070470000000000200248816802781144CF
:101840008160704700000020074810B5016841F032
:1018500010010160032000F075F80F2000F006F879
:1018600000F024F8002010BD0020024070B50D4D9E
:1018700004464FF47A712878B1FBF0F00A49096800
:10188000B1FBF0F000F0A4FB48B9102C07D2002205
:101890002146501E00F036F800206C6070BD01201B
:1018A00070BD0000000000200C0000200C4808B5AE
:1018B000816941F001018161816901F001010091BB
:1018C000C16941F08051C161C06900F08050009051
:1018D0000448416821F0E06141F00071416008BDB9
:1018E0000010024000000140002809DB00F01F0248
:1018F000012191404009800000F1E020C0F8001172
:1019000070470000F0B40E4B1B680C46C3F3022373
:10191000C3F10705042D00D90425191D072901D29B
:10192000002300E0DB1E012606FA05F1491E2140D6
:1019300099409E40761E16403143F0BC01F097BF9F
:101940000CED00E0064900F0070208684FF6FF03BF
:10195000184040EA0220034A104308607047000024
:101960000CED00E00000FA0510B501460020234C04
:10197000012922D0022939D010291DD1616822689D
:10198000D20119D51E48C1F38342C903805C0AD530
:1019900061681B4AC1F34041921E515C194AB2FB77
:1019A000F1F1484301E0184948436168490203D412
:1019B00040000321B0FBF1F010BD226AC2F3012107
:1019C000012903D1920701D5C80310BD022905D111
:1019D000626A920702D549F6404010BD0329FCD146
:1019E00021688903F9D54FF2244010BD00F02AF98F
:1019F0006168C1F38131491C4900DBE700100240F6
:101A00003E62000800127A0000093D002DE9F8430B
:101A100005460078354CC00754D0E0690026C00068
:101A200008D4E06940F08050E061E069012600F0F0
:101A3000805000902E480168C90512D40168804684
:101A400041F480710160FFF7F1FE074605E000BF39
:101A5000FFF7ECFEC01B642823D8D8F80000C005AF
:101A6000F6D5206A10F4407021D0A98801F44071A5
:101A700081421CD0206A1F49012220F440700A6074
:101A800000220A602062C00711D0FFF7CFFE074690
:101A900041F2883808E000BFFFF7C8FEC11B41458E
:101AA00002D90320BDE8F883206A8007F4D5206AB4
:101AB000696820F44070084320621EB1E06920F09C
:101AC0008050E0612878800705D56068A96820F417
:101AD0004040084360602878C00605D56068E96822
:101AE00020F48000084360600020DBE70010024023
:101AF00000700040400442422DE9F0470F460500C7
:101B000061D0434E306800F00700B84209D2306817
:101B100020F0070038433060306800F00700B8421A
:101B200051D128683B4C810712D5400703D5606826
:101B300040F4E06060602878000703D5606840F4F6
:101B4000605060606068A96820F0F0000843606041
:101B50002878C00728D06868012810D0216802289A
:101B600010D0890700292EDA616821F003010143B2
:101B70006160FFF75BFE804641F288390DE0216825
:101B80008903EFE78901EDE7FFF750FEA0EB0801BD
:101B9000494502D90320BDE8F0876068696800F014
:101BA0000C00B0EB810FEFD1306800F00700B842B5
:101BB0000BD9306820F0070038433060306800F0FF
:101BC0000700B84201D00120E5E72878400705D595
:101BD0006068E96820F4E0600843606028780007E6
:101BE00006D56068296920F4605040EAC100606051
:101BF00000F038F86168084AC1F30311515CC8402D
:101C00000649086006480068FFF730FE0020C2E77A
:101C100000200240001002404E6200080C0000202C
:101C2000040000200448054900684968044AC1F3DB
:101C30000221515CC84070470C0000200010024097
:101C40005E6200080448054900684968044AC1F317
:101C5000C221515CC84070470C00002000100240B7
:101C60005E6200080E4A51680E4801F00C03042B16
:101C700011D0082B0FD10C48C1F38343C903C05CBA
:101C80000AD55168084AC1F34041921E515C054A89
:101C90005043B0FBF1F070470449484370470000DF
:101CA0000010024000127A002C62000800093D007A
:101CB0002DE9F84F040070D02078C04DC00749D0FE
:101CC0006868C0F38100012807D06868C0F381000C
:101CD000022809D16868C00306D52868800339D571
:101CE00060680028E7D035E06068B0F5803F0BD031
:101CF00010B1B0F5A02F11D0286820F480302860F2
:101D0000286820F4802002E0286840F480302860B1
:101D1000606890B1FFF78AFD06460AE0286840F443
:101D200080202860F0E700BFFFF780FD801B64285B
:101D300073D828688003F7D50CE0FFF777FD0646D7
:101D400005E000BFFFF772FD801B6428F0D828680B
:101D50008003F7D420789A4E80074FF001094FF0A6
:101D6000000839D5686810F00C0F07D06868C0F318
:101D70008100022809D16868C00306D4286880075A
:101D800014D52069012808D110E02069B0B1C6F847
:101D90000090FFF74BFD074605E00AE1FFF746FD1F
:101DA000C01B0228C4D828688007F7D52868616955
:101DB00020F0F80040EAC10028600DE0C6F800807D
:101DC000FFF734FD074604E0FFF730FDC01B022893
:101DD00023D828688007F7D4207800072CD57948C5
:101DE000A169D9B1C0F80090FFF720FD074604E0D3
:101DF000FFF71CFDC01B02280FD8686A8007F7D5C3
:101E000071484FF4FA510068B0FBF1F0009000BF48
:101E10000098411E0091FAD20EE080E0C0F80080E8
:101E2000FFF704FD074604E0FFF700FDC01B022892
:101E300075D8686A8007F7D42078400760D5E869CC
:101E40000027C00008D4E86940F08050E861E869E4
:101E5000012700F0805000905C480168C90513D448
:101E60000168834641F480710160FFF7DFFC824620
:101E700006E000BFFFF7DAFCA0EB0A0064284ED8AA
:101E8000DBF80000C005F5D5E06801280AD008B1EC
:101E9000052813D0286A20F001002862286A20F063
:101EA000040002E0286A40F001002862E06841F284
:101EB000883B98B1FFF7BAFC82460BE0286A40F0F5
:101EC00004002862EEE700BFFFF7B0FCA0EB0A01B8
:101ED00059455AD8286A8007F6D50CE0FFF7A6FCCA
:101EE000824605E0FFF7A2FCA0EB0A0159454CD859
:101EF000286A8007F6D41FB1E86920F08050E861B5
:101F0000E06988B36968C1F38101022944D00228DD
:101F1000C6F8608004D0FFF789FC044638E034E05E
:101F2000FFF784FC074604E0FFF780FCC01B022893
:101F30002BD828688001F7D4206AB0F5803F05D1FE
:101F40006868A16820F4003008436860D4E908019B
:101F50000843696821F4741108436860C6F860900A
:101F6000FFF764FC044606E025E000BFFFF75EFCD7
:101F7000001B022809D828688001F7D51BE000BFA4
:101F8000FFF754FC001B022802D90320BDE8F88F9C
:101F900028688001F4D40EE00128F7D06868226A2E
:101FA00000F48031914204D1616A00F470108842DB
:101FB00001D00120EAE70020E8E70000001002401D
:101FC00000004242800442420C00002000700040A9
:101FD00010B5401EB0F1807F01D3012010BD4FF03D
:101FE000E02460610F21601701F041FC0020A06136
:101FF00007202061002010BD10B590F83C20012A78
:1020000022D0012280F83C20CA688C6822F44072F9
:1020100022434C6822F4806222430C6822F400625E
:1020200022430C6922F4805222434C6922F400526C
:102030002243C969002322F480420A4301684A64AA
:1020400080F83C30002010BD022010BD70B588B073
:102050000E46040004D094F83D00002518B107E0B6
:10206000012008B070BD84F83C50204600F056F8BE
:10207000022084F83D00211D206801F0C9F8B368F2
:1020800031680322206801F0CDF92068816921F0D0
:102090000C01816120688169726811438161206847
:1020A000416841F0800141602068816821F0700141
:1020B00081602068816841F040018160206881680A
:1020C00021F0070181602068816841F0040181608E
:1020D0007020059504950695039502950090F0688B
:1020E00001906946206801F011F92068416821F0EB
:1020F000700141602068416841F050014160012059
:1021000084F8460084F83E0084F83F0084F84200DA
:1021100084F8430084F83D000020A2E730B585B084
:1021200000240094019402940394006816498842A4
:1021300027D11648C16941F00201C161C16901F0AE
:1021400002010491816941F004018161816901F01A
:1021500004010491816941F00801816180690125D0
:1021600000F008000490C0200090694602950848DD
:10217000FFF766FACDE90054694606480294FFF776
:102180005FFA05B030BD00000004004000100240BE
:1021900000080140000C014070B590F83C20012A75
:1021A00026D0012480F83C40022280F83D200368BC
:1021B0005A689D6822F070060A6832435A600D4BD7
:1021C00002689A4208D0B2F1804F05D00A4B9A4279
:1021D00002D00A4B9A4204D1496825F08003194382
:1021E000916080F83D40002180F83C10084670BDA9
:1021F000022070BD002C0140000400400008004097
:1022000010B5040003D094F83D0010B107E00120A0
:1022100010BD002084F83C00204600F01FF802208A
:1022200084F83D00211D206800F0F2FF012084F8B1
:10223000460084F83E0084F83F0084F8400084F8AB
:10224000410084F8420084F8430084F8440084F894
:10225000450084F83D00002010BD000008B500686E
:102260000649884208D10648816941F400618161CC
:10227000806900F40060009008BD0000002C01405F
:102280000010024070B5044690F83C00002501287B
:1022900017D0012684F83C60022084F83D002068B5
:1022A000826822F0770222F47F4282600868502818
:1022B00038D00DDC20284FD005DC90B3102811D188
:1022C0004AE0022070BD302846D040280AD13BE0C9
:1022D00060282FD070280DD0B0F5805F03D0B0F506
:1022E000005F12D0012584F83D60002084F83C0096
:1022F000284670BDCB68D1E90121206800F0CBFFF2
:102300002068816841F0770109E0CB68D1E90121BB
:10231000206800F0C0FF2068816841F4804181603E
:10232000E1E719E0CA684968206801F069F85021BE
:10233000206806E0CA684968206801F09FF86021BB
:10234000206800F0B2FFCEE7CA684968206801F053
:1023500057F840212068F4E7226801461046F0E76C
:102360002DE9F0410D46040003D094F83D0018B16A
:1023700008E00120BDE8F081002084F83C00204600
:1023800000F040F8022084F83D002068816844F2A3
:10239000070291438160211D206800F039FF226807
:1023A00090689169166A2B68AF69034340F2033065
:1023B000814341EA0721A868EF6908434FF6FC41D1
:1023C0008843E96840EA0720014328692F6A000131
:1023D00040EA0730084369686D6926F0220646EA3C
:1023E0000515294393602268906154F8460B0162F9
:1023F000012004F81F09E0752076E0762077A075AB
:102400000020B7E710B586B0002400940194029430
:1024100003940068B0F1804F30D11948C16941F090
:102420000101C161C16901F001010491816941F0BB
:1024300004018161816901F004010491816941F025
:10244000080181618069694600F0080004904FF43A
:10245000004000900B48FFF7F3F80820CDE9000496
:10246000694609480294FFF7EBF80849486820F4E8
:10247000407040F0E06040F48070486006B010BDED
:102480000010024000080140000C01400000014023
:1024900030B585B00021009101910291039100684F
:1024A0001449884224D11448816941F008018161AE
:1024B000816901F008010491816941F004018161A1
:1024C0008069022400F0040004904FF46040CDE9DC
:1024D00000040325694603950848FFF7B1F84FF457
:1024E000E060CDE90004694603950548FFF7A8F8C8
:1024F00005B030BD002C014000100240000C01402E
:102500000008014070B5044690F83C000025012801
:102510000FD0012084F83C006AB1042A0FD0082AA9
:1025200011D00C2A13D00125002084F83C00284645
:1025300070BD022070BD206800F0C0FEF4E7206886
:1025400000F0E4FEF0E7206800F00CFFECE7206804
:1025500000F034FFE8E710B5040003D094F83D0024
:1025600010B107E0012010BD002084F83C00204697
:1025700000F01EF8022084F83D00211D206800F0C4
:1025800047FE012084F8460084F83E0084F83F00AE
:1025900084F8400084F8410084F8420084F8430045
:1025A00084F8440084F8450084F83D00002010BD04
:1025B0007047000030B500250446022249B10429C5
:1025C00012D008293ED094F84100012845D00120BE
:1025D00030BD94F83E000128F9D184F83E202068EF
:1025E000C26842F0020209E094F83F000128EED1EF
:1025F00084F83F202068C26842F00402C2600122D1
:10260000206800F03BFE1A492068884203D1426CE2
:1026100042F4004242642068884208D0B0F1804F02
:1026200005D01449884202D01349884204D18168F8
:1026300001F00701062903D0016841F001010160A2
:10264000284630BD94F840000128C0D184F84020CD
:102650002068C26842F00802D0E784F841200C29C3
:1026600001D00125ECE72068C26842F01002C5E7FE
:10267000002C0140000400400008004070B50446F2
:1026800090F83C0000260D4601280FD0012084F868
:102690003C006AB1042A1DD0082A2FD00C2A3FD052
:1026A0000126002084F83C00304670BD022070BD39
:1026B000206800F003FE2068816941F00801816113
:1026C0002068816921F004018161206881692A699B
:1026D000114311E0206800F019FE2068816941F47F
:1026E000006181612068816921F4806181612068D5
:1026F00081692A6941EA02218161D2E7206800F0FC
:1027000031FE2068C16941F00801C1612068C169DA
:1027100021F00401C1612068C1692A69114311E0F7
:10272000206800F04BFE2068C16941F40061C1617E
:102730002068C16921F48061C1612068C1692A698A
:1027400041EA0221C161ACE710B5040003D094F85E
:102750003D0010B107E0012010BD002084F83C00CE
:10276000204600F01EF8022084F83D00211D20685C
:1027700000F04EFD012084F8460084F83E0084F805
:102780003F0084F8400084F8410084F8420084F857
:10279000430084F8440084F8450084F83D0000209C
:1027A00010BD704738B5044690F84200202801D08B
:1027B000022038BD61B15AB101202063002060635E
:1027C000204601F005F80028F3D1216B012901D042
:1027D000012038BD21680A684968009121680C31E0
:1027E00051E8002F42F0100241E80023002BF5D100
:1027F00038BD000010B50068054A904207D1C9B243
:10280000044802F0CDFFBDE8104003F017B810BD3A
:1028100000380140281B002010B5044600684069BC
:1028200094F84110C0F3C010212911D180B1206863
:10283000143050E8001F21F0800140E80012002A07
:10284000F5D1A06B08B1FEF77BFD204600F0F4FE49
:102850002068406994F84210C0F38010222911D1F9
:1028600080B12068143050E8001F21F0400140E89A
:102870000012002AF5D1E06B08B1FEF761FD204699
:1028800000F0B3FE002010BD10B500680749884273
:102890000AD10748017819B90121017002F0CCFF73
:1028A000BDE8104002F0CABF10BD00000038014072
:1028B00020020020F8B5016804460868CA684B6920
:1028C00010F00F0F4FF0000559D003F0010602F48D
:1028D0009077374365D0C10705D0D10503D5616C2A
:1028E00041F001016164410705D5D90703D0616C4E
:1028F00041F002016164810705D5D90703D0616CFD
:1029000041F004016164010707D502F02001314361
:1029100003D0616C41F008016164616C00293AD018
:10292000800604D5900602D5204600F093FE20686C
:102930004069616CC0F38010090700D460B3204681
:1029400000F053FE20684069400621D5206814300D
:1029500050E8001F21F0400140E80012002AF5D1A4
:10296000E06BA8B16D494163E06BFEF70DFD0028F7
:1029700011D0E06B416B01B0BDE8F0400847830621
:102980000FD593060DD52046BDE8F84000F062BE95
:102990002046FFF779FFF8BD2046FFF775FF656415
:1029A000F8BD266B2023012E7CD1C6067AD5D6062B
:1029B00078D508684868009048694FF002064006DC
:1029C00040D5E16B086840680004000CE8D0A28D97
:1029D0008242E5D9E085886920282DD020680C3016
:1029E00050E8001F21F4807140E80012002AF5D160
:1029F0002068143050E8001F21F0010140E8001267
:102A0000002AF5D12068143050E8001F21F0400161
:102A100040E80012002AF5D184F84230256320688E
:102A20000C3050E8001F21F0100140E80012002A8D
:102A3000F5D1E06BFEF784FC6663A08DE18D401A52
:102A400081B22AE0A08DE18D401A81B2E08D00288C
:102A5000A6D00029A4D022680C3252E8000F20F43E
:102A6000907042E80007002FF5D12068143050E83C
:102A7000002F22F0010240E80027002FF5D184F852
:102A80004230256320680C3050E8002F22F01002FD
:102A900040E80023002BF5D166632046FFF7AAFE2D
:102AA000F8BDFFE705062BD5150629D594F841009A
:102AB0002128F5D1A068B0F5805F01D12069B0B1BF
:102AC000206A411C2162216800784860E08C401E29
:102AD0000004000CE084E3D12068C16821F080018B
:102AE000C1602068C16841F04001C160D8E7206A38
:102AF0000088C0F308004860206A801C2062E5E777
:102B00004006CDD55006CBD5CA68204622F04002FB
:102B1000CA6084F8413000F0E7F8C1E7A13400084A
:102B200070B5040004D094F84100002510B106E00F
:102B3000012070BD84F84050204600F023F8242086
:102B400084F841002068C16821F40051C16020462A
:102B500000F0E2FD2068016921F4904101612068E4
:102B6000416921F02A0141612068C16841F40051A6
:102B7000C1606564202084F8410084F842006563E8
:102B8000002070BDF0B585B0002406460094019485
:102B90000294039400682F49884259D12E488169D4
:102BA00041F480418161816901F48041049181692E
:102BB00041F0080181618069284D00F0080004900F
:102BC000402000900220019003200390694628468F
:102BD000FEF736FD8027CDE9007469462846029449
:102BE000FEF72EFD1E48416841F0E06141F004010E
:102BF00041601D4D1B48C5E90004C5E902472C6131
:102C00006C61AC612846EC61FEF7B4FC08B1FDF7DD
:102C100013FCF5636E62144D12484435143801C537
:102C2000102091C5104845F8104944306C61AC61E2
:102C3000EC61FEF79FFC08B1FDF7FEFBB5630022D7
:102C4000114625206E62FEF75DFE2520FEF74CFE44
:102C500005B0F0BD0038014000100240000C0140FA
:102C60000000014058000240F00700207047704704
:102C700070B5044690F84100202801D0022070BDB4
:102C800049B342B32162A284E2840020606421231C
:102C900084F84130A56B114BAB62A56B104BEB6216
:102CA000A56B104B2B63A36B5863256813462A1D35
:102CB000A06BFEF78DFC21686FF040000860206873
:102CC000143050E8001F41F0800140E80012002A53
:102CD000F5D1002070BD012070BD00009F350008B7
:102CE000E1350008B134000810B500680649884293
:102CF00008D106490120087002F074FDBDE81040BB
:102D000002F09CBD10BD00000038014020020020F0
:102D10007047FEE770B588B01C216846FDF772FA6F
:102D200025482449002401608915816004730475D5
:102D3000012505614FF460214460C161FEF72EFA60
:102D400008B1FDF779FBCDE900454FF4E0400426DA
:102D500006908DF81540049602948DF8144069464B
:102D600015480394FEF77EF808B1FDF765FB0220D5
:102D7000CDE9005069461048FEF774F808B1FDF738
:102D80005BFB102000900320019069460A48FEF783
:102D900069F808B1FDF750FB1120CDE9000669463E
:102DA0000548FEF75FF8002801D0FDF745FB08B0A5
:102DB00070BD0000002401407006002070B588B08E
:102DC0001C216846FDF71EFA1F481E4900240160B9
:102DD0008915816004730475012505614FF4602134
:102DE0004460C161FEF7DAF908B1FDF725FB022660
:102DF000CDE900654FF4E040032506908DF81540BD
:102E0000049502948DF8144069460F480394FEF728
:102E100029F808B1FDF710FBCDE9005669460A48CC
:102E2000FEF720F808B1FDF707FB0420CDE9000507
:102E300069460548FEF716F8002801D0FDF7FCFAB0
:102E400008B070BD00280140A00600200D4808B55C
:102E5000416941F0010141614069002200F0010037
:102E6000009011460E20FEF74DFD0E20FEF73CFDB2
:102E7000002211460F20FEF745FDBDE808400F2057
:102E8000FEF732BD001002402DE9F04786B0002465
:102E90002E480094019402940394816941F010013A
:102EA0008161816901F010010491816941F0200183
:102EB0008161816901F020010491816941F004017F
:102EC0008161816901F004010491816941F0080187
:102ED00081618069DFF8788000F008004FF4604578
:102EE0000490002229464046FEF79AFCDFF86490E1
:102EF00041F20206002231464846FEF791FCDFF817
:102F000058A04FF40067002239465046FEF788FC6F
:102F10000220CDE902400095012569460195404611
:102F2000FEF78EFBCDE900650326CDE90246694632
:102F30004846FEF785FB00970396CDE901546946A4
:102F40005046FEF77DFB06B0BDE8F087001002405A
:102F500000100140000C01400008014070470000D3
:102F600010B596B000240F941094119412941394F9
:102F70001C2168461494FDF745F9202107A8FDF7A8
:102F800041F937483549C0E900144FF6FF71C0E9EF
:102F90000241046144618461FFF732F908B1FDF731
:102FA0004BFA4FF480500F900FA92D48FFF76AF9A4
:102FB00008B1FDF741FA2A48FFF7C6FB08B1FDF753
:102FC0003BFA2748FFF7C7FA08B1FDF735FA139423
:102FD00013A923481494FFF7DFF808B1FDF72CFA82
:102FE0006020CDE900040294039404940594002227
:102FF00069461B480694FFF741FB08B1FDF71CFA30
:10300000042269461648FFF739FB08B1FDF714FAA8
:10301000082269461248FFF731FB08B1FDF70CFAA8
:103020000C2269460E480094FFF76CFA08B1FDF7D0
:1030300003FA0794089409944FF400500A94CDE9D8
:103040000B4007A906480E94FEF7D6FF08B1FDF71E
:10305000F3F90348FFF71CFA16B010BD002C01402D
:10306000D006002010B58CB024216846FDF7CAF8C0
:103070000024154809944FF080410A94C0E90014D7
:103080004FF6FF71C0E90241046184610120CDE97E
:103090000004CDE902040494CDE905400794694693
:1030A00009480894FFF75CF908B1FDF7C5F90994E0
:1030B00009A905480A94FFF76FF8002801D0FDF729
:1030C000BBF90CB010BD00001807002010B586B089
:1030D00000241248009401940294039404940E492D
:1030E0000594C0E900144FF6FF71C0E90241046184
:1030F00069468461FEF7AAFF08B1FDF79DF95020EB
:10310000CDE9040404A90548FFF746F8002801D0DA
:10311000FDF792F906B010BD0004004060070020E2
:103120000C4810B50A4901604FF4E13141600021BB
:1031300081600C22C160C0E904128161C161FFF7A6
:10314000EFFC002803D0BDE81040FDF775B910BDB5
:1031500000380140A8070020FEE7FEE770477047EF
:10316000FEF76ABB30B593B028216846FDF74AF8F0
:1031700014210AA8FDF746F8002501200F951095A7
:103180001195010412958DE8230004904FF4E0108E
:10319000CDE90810022407946846FEF789FD98B926
:1031A0000AA90F2081E831006002CDE90D05022156
:1031B0000AA8FEF7A1FC38B9A00311900F940FA83C
:1031C000FEF724FC002801D0FDF736F913B030BD1E
:1031D0007047000010B50A4C0A4A6FF01001E06910
:1031E000401CE06112681161022807D10648FDF712
:1031F0007BFF0648FDF724FF0020E06110BD0000C2
:1032000020020020D006002070060020A00600202A
:10321000F0B50268164B174C174D4FF08047984297
:1032200005D0B84203D0A04201D0A84203D122F079
:1032300070064A683243984205D0B84203D0A04293
:1032400001D0A84203D122F44074CA6822434C69D9
:1032500022F08002224302608A68C2620A688262A7
:10326000984201D10969016301214161F0BD00006B
:10327000002C0140000400400008004010B501F09F
:103280001F030121046A99408C430462016A9A4039
:103290001143016210BD10B5846842EA032224F490
:1032A0007F440A432243826010BD826822F070028C
:1032B0000A4342F0070181607047000030B5036A9D
:1032C000026A22F0010202624268846924F07305F6
:1032D0000C682C4323F002058B682B430A4DA8424F
:1032E0000BD123F00805CB6822F440722B434D69C3
:1032F00023F0040315438A692A43426084614968C4
:103300004163036230BD0000002C014030B5026A09
:10331000036A23F010030362436884690D6824F490
:10332000E64444EA05248D6822F0200242EA0512B0
:103330000B4DA8420ED1CD6822F0800242EA051260
:103340004D6923F4406343EA85038D6922F040020E
:1033500043EA85034360846149688163026230BD4A
:10336000002C014030B5036A026A22F480720262C6
:103370004268C46923F4007324F073050C682C437D
:103380008D6843EA05230C4DA8420ED1CD6823F485
:10339000006343EA05234D6922F4405242EA0512D4
:1033A0008D6923F4806342EA05124260C461496872
:1033B000C163036230BD0000002C014030B5046AD7
:1033C000026A22F4805202624268C3690D6823F4E3
:1033D000E64343EA05238D6824F4005444EA0534A7
:1033E000064DA84204D14D6922F4804242EA85127A
:1033F0004260C36149680164046230BD002C014031
:1034000010B5036A046A24F001040462846924F09C
:10341000F00444EA021423F00A020A4384610262BF
:1034200010BD000070B5056A046A24F0010404624E
:1034300084690F4EB04208D0B0F1804F05D00D4ED8
:10344000B04202D00C4EB04203D124F00304144326
:1034500001E044F001041A0724F0F00444EA126287
:1034600025F00A0301F00A0119438261016270BD6F
:10347000002C0140000400400008004010B5036A21
:10348000046A24F010040462846923F0A00324F485
:10349000704444EA023243EA01118261016210BDC4
:1034A00010B5406A0021C185C184FFF7EDF910BD58
:1034B00070B5446A2068406994F84110C0F3C010A8
:1034C0000025212904D118B1E584204600F0B4F884
:1034D0002068406994F84210C0F38010222904D17A
:1034E00018B1E585204600F080F8606C40F01000CF
:1034F00060642046FFF7C8F970BD10B50146406A08
:10350000096809684FF0000289062ED4C285016857
:103510000C3151E8003F23F4807341E80034002C63
:10352000F5D10168143151E8003F23F0010341E86F
:103530000034002CF5D10168143151E8003F23F02C
:10354000400341E80034002CF5D1202180F84210DE
:10355000016B012909D101680C3151E8003F23F0CA
:10356000100341E80034002CF5D14263016B0129BE
:1035700002D0FFF77BFB10BD818DFFF73BF910BD3B
:1035800010B5406A01214163016B012902D0FFF7A8
:103590006EFB10BD818D4908FFF72CF910BD10B5E9
:1035A0000146406A09680968890616D40021C18469
:1035B0000168143151E8002F22F0800241E8002315
:1035C000002BF5D101680C3151E8002F42F0400288
:1035D00041E80023002BF5D110BDFFF785FB10BD9E
:1035E00010B5406AFFF794FB10BD01680C3151E83B
:1035F000002F22F4907241E80023002BF5D10168DE
:10360000143151E8002F22F0010241E80023002B81
:10361000F5D1016B012909D101680C3151E8002F66
:1036200022F0100241E80023002BF5D1202180F880
:10363000421000210163704701680C3151E8002FEE
:1036400022F0C00241E80023002BF5D1202180F8B0
:103650004110704708B590F84210222901D002208D
:1036600008BD82684FF480539A4201D1016921B1AB
:10367000816A9A421BD04AB10AE00268816A5268A4
:10368000C2F308020A80816A891C08E0026972B1EB
:103690000268526802F07F020A70816A491C8162E6
:1036A000C18D491E0904090CC18503D01BE00268C5
:1036B0005268F1E70168CA6822F02002CA60016816
:1036C000CA6822F48072CA6001684A6922F0010265
:1036D0004A61202180F8421000214163026B012AD7
:1036E00003D0FFF7C3FA002008BD016301680C3165
:1036F00051E8002F22F0100241E80023002BF5D101
:1037000001680A68D20602D50A6849680091818D6D
:10371000FFF770F8E7E7000070B50446006801693C
:10372000E26821F44051114301612169A068084316
:10373000616908432168CA6841F20C639A430243F5
:10374000CA6020684169A26921F440711143416156
:103750001E492068884202D1FEF774FA01E0FEF7A4
:1037600061FA00EBC00101EB001260686421800087
:10377000B2FBF0F3B3FBF1F36FF018067343B2FB47
:10378000F0F5B2FBF0F605EB8305322303EB0515EC
:10379000B5FBF1F5B6FBF1F605F0F00505EB061506
:1037A000B2FBF0F6B2FBF0F0B0FBF1F06FF01802F4
:1037B000504306EB800003EB0010B0FBF1F02168F2
:1037C00000F00F002844886070BD00000038014000
:1037D00038B5816204468285002013466064222247
:1037E00084F84220E56B1B4AAA62E56B1A4AEA623A
:1037F000E56B1A4A2A63E26B50630A462168E06B64
:10380000091DFDF7E5FE2068016840680090206909
:1038100048B120680C3050E8001F41F4807140E846
:103820000012002AF5D12068143050E8001F41F042
:10383000010140E80012002AF5D12068143050E858
:10384000001F41F0400140E80012002AF5D100209D
:1038500038BD0000FB34000881350008B134000891
:103860000148FFF727B80000A8070020FEE7090776
:10387000090E002804DB00F1E02080F800147047F6
:1038800000F00F0000F1E02080F8141D70470000E8
:103890002DE9F04709ACDDF8208094E860160F4C64
:1038A0000E9F046044608460C4600D4C47620461F4
:1038B00000F1140E00F13C048EE80E100021866524
:1038C000C0E90D1884E8200600F0DEFC05F10C00CC
:1038D0003269BDE8F0470121104700005943000854
:1038E000E5380008C169026B0A60B0F84A208A8096
:1038F000826D1288CA80C06B006988607047436916
:10390000C16B5B688A689A4208D94B68934205D2BA
:10391000436B002203638A60C06B42607047826B16
:1039200000211170806B406A004770B5D0E90556E0
:103930000446B6F908104C3005F10C0201F0C0F94C
:10394000B6F90A1005F1100204F1520001F0B8F9BD
:10395000F068A969884202DC6969884201DAE16598
:1039600070BDE06570BD10B50446406C00688047CE
:10397000206C0068BDE810400047F0B5826B89B04C
:103980000121117045690446002105F11C00CDE9B3
:1039900006100491059104F14C02A06B931C0830B1
:1039A000CDE90003CDE90221206C0023921E476877
:1039B000901DA16D0646B847A06DB0F90010206CAF
:1039C00082680846904704F1520101AA881C2C35F0
:1039D000009682E82300606CE16B00234568A26DCD
:1039E00004F15C001031A847606C806809B0BDE844
:1039F000F0400047806B00210170704770B5D0E93E
:103A000005560446B6F908104C3005F10C0201F0D9
:103A100057F9B6F90A0005F1100101F045F9A4F8CB
:103A2000500070BD006C0068004730B5044689B096
:103A3000A16B01200870616900201C31CDE90601ED
:103A40000490059004F14C01A36B8A1C0833CDE966
:103A50000032CDE90210206C0023121F4568A16DD1
:103A6000901DA847A06D216CB0F90000896809B0CD
:103A7000BDE830400847806B00210170704710B5E9
:103A8000D0E905120446B2F908000C3101F00CF936
:103A9000A4F84A0010BD50F8141FCA8942878989CA
:103AA0000187406A012101707047806B002101701D
:103AB000704700002DE9FF4F91B00DF1840C0D46C9
:103AC000DDE92471DDE926969CE8000D0446254ACF
:103AD00029982261C4E92D100A6900219047CDE997
:103AE00005B7CDE9038A1EAB93E807008DE8070010
:103AF000DDE9132329462046FFF7CAFE28980890DF
:103B000004F14800079604F14A08CDE90908071DA9
:103B1000861DCDE90B76D4F8B4000D9004F16A004F
:103B20000E90801C3835CDE90F05002207A9103012
:103B300000F01CFEC4F8709000210296CDE90371DC
:103B40000591A26B43460832CDE90012D9F83C60DA
:103B5000D4F8B42004F168012846B04715B0BDE898
:103B6000F08F0000693B000810B50446FFF7BAFE6D
:103B7000D4F8B410E0690988818110BD70B504469D
:103B80004C30D4E9055605F10C02B6F9081001F0E5
:103B900097F8B6F9100005F1440101F085F8A4F892
:103BA000680070BD006F806B004710B54169044626
:103BB000B1F84600A4F86C00B1F84400A4F86A001B
:103BC000216FD4F8B4003834096CB0F9000088478C
:103BD00021680120087010BD806B002101707047C2
:103BE00010B504466A30D4E905214432B1F9101009
:103BF00001F066F82046BDE81040FFF796BE10B50C
:103C000004466A30D4E905214432B1F9101001F0BC
:103C100057F82046BDE81040FFF787BE7C3000F023
:103C200056BD10B50446406C00688047206C0068A3
:103C3000BDE810400047F0B589B0044600F02DF90A
:103C4000A16B012065690870002005F14801CDE9EC
:103C5000060104F14C0105908A1C04F19003CDE9A2
:103C60000032CDE902100490206C0023A16D47685A
:103C700004F15000921F0646B847216CA06D896878
:103C8000B0F90000884704F152005835811C0096B5
:103C90000395CDE90110606CE16B00234568A26DCE
:103CA00004F15C001031A847606C8068804709B05F
:103CB0002046BDE8F04000F0F0B8806B00210170B4
:103CC0007047006F806B004710B50446406C006879
:103CD0008047206C0068BDE810400047F0B589B00F
:103CE000044600F0DAF8A16B012065690870002035
:103CF00005F16401CDE906010490059004F14C0141
:103D0000236F8A1C3433CDE90032CDE90210206CD8
:103D10000023A16D476804F150001A320646B847E7
:103D2000216CA06D8968B0F90000884704F1520049
:103D30007435811C00960395CDE90110606CE16B30
:103D400000234568A26D04F15C001031A847606C47
:103D50008068804709B02046BDE8F040FFF725BFE6
:103D6000806B00210170704710B504466A30D4E9B9
:103D700005214432B1F9101000F0A2FF2046BDE841
:103D80001040FFF73BBE10B504466A30D4E9052168
:103D90004432B1F9101000F093FF2046BDE8104006
:103DA000FFF72CBE7C3000F092BC006C006800472E
:103DB00030B50446416989B000204831CDE906019B
:103DC00004F14C0105908A1C04F19003CDE9003206
:103DD000CDE902100490206C0023A16D4568921F6C
:103DE00004F15000A847216CA06D8968B0F900006B
:103DF000884709B02046BDE8304000F04EB8806BDF
:103E0000002101707047006F806B0047006C0068F4
:103E1000004730B5416989B0044600206431CDE9DE
:103E200006010490059004F14C01236F8A1C343381
:103E3000CDE90032CDE90210206C0023A16D456868
:103E40001A3204F15000A847216CA06D8968B0F9BE
:103E50000000884709B02046BDE83040FFF7A5BE06
:103E6000806B00210170704770B5D0E9056504468C
:103E7000B5F9080006F10C0100F016FFA4F848009F
:103E8000B5F9101006F1440204F16A00BDE8704073
:103E900000F016BF7C3000F01ABC10B54169044632
:103EA000C889A4F84E008889A4F84C00002104F1C8
:103EB0007C0000F0FFFBA16B0120087010BD806B3F
:103EC0000021017070478164AFF30080002200F18F
:103ED0002801134608C1521C052AFBDB816C91F8AE
:103EE000202001219140C16480F8463070470000D5
:103EF00010B50848FCF74AFF0748FCF747FF0022C7
:103F000011461220FDF7FEFCBDE810401220FDF71F
:103F1000EBBC000070060020A00600202DE9F04751
:103F2000836C0446002220CB521C052A51F82550F0
:103F300020C0F8DB94F8462004F13C0104F11400A1
:103F40009AB10A46A36C002113F1140334F8045B00
:103F500030F8046B491CAD1B33F8026B754322F833
:103F6000025B0529F2DBBDE8F08704F12802134665
:103F700026460025176856F804CB6D1C674480C29E
:103F8000052DF7DBE26C521EE264ECD10D46A16C0C
:103F9000074601F11406096A9C4600204B1E4FF0AB
:103FA000010A22460AFA03F95CF8048B08EB0903BC
:103FB000CB405B1C08C732F8048B401CA8EB030302
:103FC00036F8028B052803FB08F325F8023BEBDBF0
:103FD0002046FFF77BFF84F846A0C4E770B5174C76
:103FE0006078002828D0022000F0B2FF00F06CFFBB
:103FF0006068006880476068001D6060A168884252
:1040000002D104F1340060600D4C254603E02068C5
:1040100000F06EF9241D6868A042F8D100F084FA1F
:1040200000F00AFF022000F087FF032000F084FF69
:10403000BDE8704000F0F0B870BD00001000002036
:10404000780800202DE9F04100F000FF6148071FCB
:10405000041F7860B2E0206830B900F0CBFA442247
:104060005D495EA000F003FF2068006830B900F0F1
:10407000C1FA4522584959A000F0F9FE206840686D
:1040800030B900F0B7FA4622534954A000F0EFFED1
:104090002068806830B900F0ADFA47224E494FA041
:1040A00000F0E5FE2068C06830B900F0A3FA4822AD
:1040B00049494AA000F0DBFE2068406930B900F0B1
:1040C00099FA4922444945A000F0D1FE2068806950
:1040D00030B900F08FFA4A223F4940A000F0C7FEF5
:1040E0002068C06930B900F085FA4B223A493BA0FC
:1040F00000F0BDFE2068016A002908DD406A30B981
:1041000000F078FA4D22344934A000F0B0FE216866
:104110004048C8622068D0E9082101EB8201816231
:104120002068466A42E03568002D3ED0286830B9E4
:1041300000F060FA5422284928A000F098FE686830
:1041400030B900F057FA5522234924A000F08FFE21
:10415000A86830B900F04EFA56221F491FA000F09F
:1041600086FEE86830B900F045FA57221A491BA0CC
:1041700000F07DFE286930B900F03CFA582216495B
:1041800016A000F074FE686930B900F033FA5922C5
:10419000114912A000F06BFEA86930B900F02AFAAC
:1041A0005A220D490DA000F062FE361D2068806A7B
:1041B000B042B8D1206801688847241D7868A042C1
:1041C0007FF449AF00F0B2F91249022018390870A3
:1041D000BDE8F0817C080020776200082E2E5C2E5E
:1041E0002E5C2E2E5C2E2E5C2E2E5C2E2E5C72658E
:1041F000666572656E63655C726F626F73642D7263
:1042000065665C62757273745C62757273742E633A
:10421000000000002800002010B5084C207801287C
:1042200007D000F0E7F940F20222054905A000F0AE
:104230001EFE00F09FF90220207010BD100000202B
:104240008E6200082E2E5C2E2E5C2E2E5C2E2E5C96
:104250002E2E5C2E2E5C7265666572656E63655CE3
:10426000726F626F73642D7265665C6275727374CF
:104270005C62757273742E630000000000F580406C
:1042800000B201F017BB000070B5094C0546A068EC
:10429000012806DB00F0AEF92322064906A000F053
:1042A000E6FDA06844F82050A068401CA06070BDE6
:1042B00078080020666200082E2E5C2E2E5C2E2EC2
:1042C0005C2E2E5C2E2E5C2E2E5C726566657265F1
:1042D0006E63655C726F626F73642D7265665C629B
:1042E000757273745C62757273742E6300000000E3
:1042F0002DE9F04104461748407800281CD0A669F3
:10430000D4E90B0135680027A9421AD010B18168A1
:10431000204688470F48183085B1216AA9420DDD33
:10432000616A51F825604EB171682046884731684E
:1043300020468847C4E90B65BDE8F081C4E90B0756
:10434000FAE771680029F7D001682046884777604E
:10435000F2E70000100000207047C16AC9680847F2
:10436000C16A09690847000010B5084C2078022886
:1043700007D000F03FF940F2FD12054905A000F01A
:1043800076FD00F009F90120207010BD100000201A
:10439000836200082E2E5C2E2E5C2E2E5C2E2E5C50
:1043A0002E2E5C2E2E5C7265666572656E63655C92
:1043B000726F626F73642D7265665C62757273747E
:1043C0005C62757273742E630000000070B5042087
:1043D00000F0BEFD00F078FD00F042FD00F0DEF8D8
:1043E000094C264608E025682846E9688847E86AB7
:1043F000816928468847241D7068A042F3D1BDE832
:104400007040042000F098BD7808002070B50F4D72
:10441000287802280CD02869401C2861012060F30C
:10442000174400F0DDF800BF60F30F24204670BD94
:1044300000F0A2F860F30704E868401CE86002207E
:1044400060F3174400F0C2F8EEE70000100000200F
:1044500070B5254C0546207802281ED02069401EE4
:10446000206107D500F0C6F840F239221F4920A08C
:1044700000F0FDFCC5F30740012807D000F0BAF8B2
:1044800040F23A2219491AA000F0F1FCC5F30720C6
:10449000012801D100F0ACF870BDE068401EE0607A
:1044A000C5F30740022807D000F0A4F84FF40B72C0
:1044B0000E490FA000F0DBFCE068002807DA00F0EE
:1044C00099F840F22D22094909A000F0D0FCC5F36B
:1044D0000720012801D100F081F8E8B20128DBD1E2
:1044E00000F052F870BD0000100000209D6200082E
:1044F0002E2E5C2E2E5C2E2E5C2E2E5C2E2E5C2EF6
:104500002E5C7265666572656E63655C726F626F64
:1045100073642D7265665C62757273745C62757229
:1045200073742E63000000007047000010B5002275
:1045300011461B20FDF7E6F91B20FDF7D5F90320F6
:1045400000F01EFD0948C1680A6842F080720A60E6
:104550004268002111608068016841F0010101603A
:10456000BDE81040024800F055BE000020020020C7
:1045700020A107007047000002484169491C4161C1
:10458000012070472002002002484169491E416114
:104590007047000020020020704700000849094AC7
:1045A0008869401C8861904201D1002088610878A8
:1045B000012803D10E21044801F016B9704700000C
:1045C0002002002040420F002A660008EFF310800E
:1045D00072B608B1002070470120704762B670477C
:1045E000EFF3108072B608B10020704701207047C9
:1045F00062B6704772B601F0F1BC0000114A106853
:1046000043061148016802D541F0010101E021F0A3
:10461000010101601268120602D541F0020101E0B9
:1046200021F00201094A01601268D20702D041F06C
:10463000040101E021F0040101600349044800F095
:104640006BBF00000808014040020020080C014038
:10465000281C0020704770477047704770477047AC
:104660007047704770477047704770477047704792
:1046700070477047094910B540F207700860074954
:104680004FF4CF60143108600C210548FDF792FF0C
:1046900062B6BDE8104001F0D1B800002C2C0140FA
:1046A000D006002002480078012800D00020704782
:1046B0001000002010B503460C46006800F0A0F979
:1046C0002146586800F09CF9D869048010BD70B587
:1046D0000446B0F912508069226BB0F90060206A7C
:1046E00012880188891A6181E16A00880988401A64
:1046F000A081206800F08EF9606800F08BF9B54267
:1047000007DAA06A3346B0F90020606BB0F90010F8
:1047100009E00CDD606A3246B0F90030606B008859
:10472000C0F1000001B2284601F076FC0546B4F95C
:104730000E00B4F9101065820844616A2844B1F98A
:104740000010814203DAE0690180022007E0A16ADB
:10475000B1F90010814204DDE0690180012020757B
:1047600070BD00212175E169088070BD70B40B68CF
:1047700003604C6844604C6A1C6004684B6A2360A8
:1047800004680B69A361046800F1080363610568AC
:104790009C1CAC600468636005689C1D2C63056804
:1047A000A41DEC6146684D6A35604568AB6146689A
:1047B0004D69756146681D1DB56045686B6045684B
:1047C00008332B634368DC618B688361CB68C3610A
:1047D0008B6903624B6943620B698362CB69C36275
:1047E0000B6A0363496A0A31416370BC1146FFF7E3
:1047F00061BF00218163C1630164426C11800321A8
:10480000017370472DE9F05F044605698069B0F9CE
:1048100000B0606CB0F90020A08F06B2206AB0F939
:104820000080606AB0F90070606B90F800A0606969
:10483000B0F90030A06A30B3E16A0068D1F800C076
:10484000216B604509681FDDACEB0001002902DD2A
:10485000A87B014105E095F80EC0484240FA0CF0F3
:104860004142B5F90C004843A97A002801DD08410E
:1048700002E0404208414042404400B25FEA000882
:1048800020D54FF000081DE088421BDA091A0029E4
:1048900002DDA87B014105E095F80EC0484240FAD0
:1048A0000CF04142B5F90C004843A97A002801DD1B
:1048B000084102E0404208414042384407B2002F1C
:1048C00000DD0027A3EB0B09B9F1000F0EDD424517
:1048D0000ADA206C01F0CAFB374A384B01F068FC59
:1048E00002D3BAF1020F0FD1022013E00CDABA4260
:1048F0000FDD206C01F0BAFB2F4A314B01F0CEFBEB
:1049000007D3BAF1010F04D05FEA0A00207303D085
:1049100020E0012020731DE0B5F90220216C09FB85
:1049200002102064E97A002801DD084102E04042DB
:104930000841404210F5004F01DC224804E0B0F588
:10494000004F01DB47F6FF70A063BBF1000F0DD0F5
:104950000026E663A16BB5F900004944A1EB0B0109
:104960004843A97A002817DD084118E0B9F1000F83
:1049700007DDE988B5F9080031440EB2864209DC4A
:10498000E7E7E6DA2889E9884042711A00B20EB2F8
:104990008642DEDA0646DCE74042084140423044C7
:1049A000B84201DA384603E04146404500DD08469A
:1049B000616C0880BDE8F09F333393CCCCCCDC41F4
:1049C000CCCCDCC10180FFFF2DE9F00FDDE908450B
:1049D000DDE90A67DDE90C89DDE90EABDDF840C0F1
:1049E000C0F810C043641430A0E806012146C0E9B5
:1049F00004B580E8C006BDE8F00F2038FFF7F9BE27
:104A000000210162C1624162026B1180032180F8C2
:104A1000341070472DE9F05F054680686969DFF85A
:104A200008B1B0F900A0B1F90070A969286BB1F91B
:104A30000060E969B0F9000091F80080D5E9004113
:104A4000B1F90010A1EB0A09B9F1000F0EDDB8426F
:104A50000ADA686A01F00AFB5A46344B01F0A8FBF7
:104A600002D3B8F1020F0FD1022014E00CDAB042E9
:104A700010DD686A01F0FAFA5A462D4B01F00EFB80
:104A800008D3B8F1010F05D05FEA080085F83400BB
:104A900004D01CE0012085F8340018E0B4F90220AD
:104AA000696A09FB02106862617A002801DD084129
:104AB00002E040420841404210F5004F01DC1D4831
:104AC00004E0B0F5004F01DB47F6FF702862296A69
:104AD000B4F900004944A1EB0A014843296931B106
:104AE000B1F90010B4F9062051430844E962E968BD
:104AF00031B1B1F90010B4F904205143401AA96250
:104B0000217A002802DD40FA01F402E04042084127
:104B10004442B44201DA344602E0BC4200DD3C4685
:104B2000286B0480BDE8F09F333393CCCCCCDC41C0
:104B3000CCCCDCC10180FFFF704700002DE9F043C1
:104B4000D0E9034142690968D0E907351268B4F930
:104B500008608A1A4FF0000107D096420EDA47F239
:104B60003237BA4206DD3A460AE073B31888288025
:104B7000BDE8F08367891FB9921B01E0002AF4DCCD
:104B8000C6F10009914508DD21498A4201DA0A4649
:104B900005E0618919B9324401E0002AE5DB876A42
:104BA000B4F90010B7F900C0476A80695143B7F9FA
:104BB000007028B1B0F90000B4F9028000FB1811B0
:104BC000002905DDA079014108E0FFE72980CFE752
:104BD00094F80680484240FA08F0414213B1B3F914
:104BE00000000144614501DA614602E0B94200DD9E
:104BF00039460029EAD1B4F90A000028E6DD9642D8
:104C000001DA0146E2E79145E0DD4142DEE70000DE
:104C1000CE8CFFFFF0B50DF1140E9EE8F010C0F839
:104C20000CC0103080E8FE00F0BD4078032801D0B1
:104C3000002070470120704741600121417070479A
:104C400070B5044640780325052817D2DFE800F048
:104C500016030A171F00207801280FD160698047CA
:104C600002206070A0698047002807D000202072D1
:104C7000E0698047206A80472072657070BD2078A7
:104C800001280DD0257204206070606A8047A06AF8
:104C900080470028F2D0E06A80470120607070BD34
:104CA000206A8047207270BDB1F90220824201DA89
:104CB00010467047B1F900108142FADD084670478E
:104CC000B2F90230B2F90020002900DA002199423D
:104CD00001DD438004E0914201DA428000E041803E
:104CE000494209B2994201DD03807047914201DADD
:104CF000028070470180704770B5104840780028E6
:104D00001AD0FFF731FB032000F022F9012000F058
:104D10001FF90B4C254603E0206881688847241D55
:104D20006868A042F8D100F0A3F8FFF767FCBDE87F
:104D30007040012000F000B970BD0000100000209C
:104D40007808002000F0B6BD10B500F093F8FFF72A
:104D500081FC10BD10B500F08FF8FFF77CFC10BD92
:104D600010B500F08BF8FFF777FC10BD10B500F020
:104D700086F8FFF772FC10BD10B500F081F8FFF760
:104D80006DFC10BD10B500F07CF8FFF768FC10BD9D
:104D900010B500F077F8FFF763FC10BD10B500F018
:104DA00072F8FFF75EFC10BD10B500F06DF8FFF76C
:104DB00059FC10BD10B500F069F8FFF754FC10BDA8
:104DC00010B500F064F8FFF74FFC10BD10B500F00F
:104DD0005FF8FFF74AFC10BD10B500F05AF8FFF776
:104DE00045FC10BD10B500F055F8FFF740FC10BDB4
:104DF00010B500F050F8FFF73BFC10BD10B500F007
:104E00004BF8FFF736FC10BD70B5094C254603E0A2
:104E1000206841688847241D6868A042F8D1FFF7E0
:104E200029FC00F03BF803490120487070BD0000E8
:104E3000780800201000002010B500F071FE00F08E
:104E4000EDFABDE8104000F0DABA0000024A03486B
:104E5000A2F1200100F078BEBC080020B8000020BC
:104E600010B500F03BFFBDE8104000F07BBC704780
:104E700000F036BF00F0E6BE00F0EABE70477047B3
:104E8000704770477047704700F0FEBE704770472C
:104E900070477047704770477047000010B5FFF7C4
:104EA00027F8054800E000BF90F846100029FAD026
:104EB000BDE8104000F02ABFC41C00200148006873
:104EC00070470000900000202DE9F041FFF7EAFB59
:104ED000174D98B12868032764302860A868154CDE
:104EE0006430A8604FF47A72696802E0A0F57A70C5
:104EF000491C9042FAD8C5E9011002E00D4C032785
:104F00000C340026B046206860B102682968436806
:104F10008A1A9A4206D9016080688047022801D027
:104F2000C4F80080241D761CBE42ECDBBDE8F08195
:104F30009000002084080020044910B54A6982428C
:104F400003D10020887000F00FF810BD1000002081
:104F5000044910B54A69824203D10120887000F0EB
:104F600009F810BD100000200149022008607047B8
:104F7000140C01400149022008607047100C0140E8
:104F8000014948617047000010000020014800F00E
:104F9000EBBC0000D4050020014800F0EFBC00008D
:104FA000D4050020024A90601176104600F0DCBC67
:104FB000D405002001460148FFF722BDE00400208F
:104FC0000148FFF727BD0000E00400202DE9F003B1
:104FD0000D4CDDE90865DDE90AC7DDE90698C4F88E
:104FE0001C80236384E807000EB9A4F1FA06666109
:104FF0000DB9054DFC3DA561C4E903C74946BDE8AF
:10500000F0030148FFF7FCBCE00400200146014822
:10501000FFF7F6BC240500200148FFF7FBBC0000A9
:10502000240500202DE9F0030D4CDDE90865DDE9DC
:105030000AC7DDE90698C4F81C80236384E80700EA
:105040000EB9A4F59D76666105B9064DA561C4E962
:1050500003C74946BDE8F0030148FFF7D1BC000093
:1050600024050020E8030020014800F07DBC00007A
:10507000AC050020014800F081BC0000AC05002018
:10508000024A90601176104600F06EBCAC0500201C
:1050900001460148FFF7B4BC9C0400200148FFF71B
:1050A000B9BC00009C0400202DE9F0030D4CDDE9A3
:1050B0000865DDE90AC7DDE90698C4F81C802363AA
:1050C00084E807000EB9A4F1BA0666610DB9054D72
:1050D000BC3DA561C4E903C74946BDE8F0030148EA
:1050E000FFF78EBC9C04002001460148FFF788BCF6
:1050F000680500200148FFF78DBC0000680500200E
:105100002DE9F0030D4CDDE90865DDE90AC7DDE9AD
:105110000698C4F81C80236384E807000EB9A4F540
:10512000BD76666105B9064DA561C4E903C7494668
:10513000BDE8F0030148FFF763BC000068050020EC
:10514000EC030020426104C903EB4202826104C9FE
:1051500003EB4202C26104C903EB4202C0E9082129
:1051600070472DE9F04704468069B0F90030E069E6
:10517000B0F90020206AB0F90010606A056846683E
:105180005D4306FB02558668076906FB0155C66844
:1051900045F3CF355E4307FB0266476907FB0166AF
:1051A000876946F3CF365F43C369006A03FB027227
:1051B00000FB012040F3CF31A819084442F6AA228F
:1051C0005043C013A1EB000A2D1A361A05EB460016
:1051D00044F6E611484361694FEAE0394B46B1F9BC
:1051E0001600B1F91470804602462946384600F090
:1051F00027F820824B463A462946C8F1000000F0C5
:105200001FF86082C4E9025925806680A4F804A0D2
:10521000BDE8F08701B5094882B040680168009197
:1052200002994822A1FB021202910168009A0191A1
:10523000891A029A9142F8D30EBD00002002002084
:10524000484302FB0300C013704710B501600446D9
:1052500008784A78801AA06348788A78801AE063D0
:1052600000206060A0602064A0646064A4F84C002A
:10527000A08120652061886820634868E062206A18
:1052800080472046BDE81040AFF300800021416018
:105290008160016481644164A0F84C1081810165E2
:1052A00001610268936803635368C362D378012283
:1052B0009A4042630175704770B505680446002D39
:1052C00056D0207D58B16868E16A884203D1A86849
:1052D000216B884203D0E069BDE870400047A068B8
:1052E000401CA060606A80472064206A8047207D5F
:1052F0000028A06A3DD0804760B16068401C6060B3
:105300000020A081A064287BA16C0028206D26D0FD
:10531000401A25E094F83820216C606C9140081AFE
:105320001041C4E91110297B01B1404294F83C10AE
:10533000084100B2B0F5004F02DB47F6FF7004E011
:1053400010F5004F05DC48F20100A081A4F84C00E4
:10535000D9E7A4F84C00A1890844A081D3E7084408
:10536000206594F83C1008412061A9680844206138
:1053700070BD804718B16068401C606070BDA16B53
:10538000206C884060646A6810442A7B02B1C04384
:105390000841206594F83C1008412061A968084440
:1053A0002061606B401E6063E8D10120207570BDF4
:1053B0000148B0F916007047281C002000207047F3
:1053C000704700000148FFF761BF0000480400205B
:1053D0000148FFF771BF00004804002010B500F03D
:1053E00027F8C0B210BD70B5FFF710F8054600F001
:1053F0002DF804462846FFF72BF8204670BDFBF732
:1054000059B970B50446FFF701F80546204600F08B
:1054100039F82846BDE87040FFF71AB8FBF70ABA1A
:1054200010B500F021F8C0F18000C0B210BD00003E
:1054300010B5FEF7EBFF04490A7C097B511ACCB288
:10544000FFF706F8204610BD9C000020044A054BDB
:10545000D16801F07F00491C185CD16070470000E2
:105460009C000020CE08002010B5FEF7CFFF0449B5
:105470000A7E097D511ACCB2FEF7EAFF204610BD24
:105480009C000020044A10B59169044C01F07F0390
:10549000491CE054916110BD9C0000204E09002081
:1054A0002DE9F041144EFF24FEF7B0FF0746FFF749
:1054B000DBFFFF2800D920460F4A04460F4D803AF3
:1054C00007E0696901F07F03491CD35C696106F854
:1054D000013B401EF5D23846FEF7BAFF6C60002C47
:1054E00007D001202870E1B2BDE8F041024800F089
:1054F0007BB9BDE8F0810000CE0900209C000020AF
:1055000001600021C161491E016241627047016969
:10551000098881807047000070B50B68416A994224
:1055200034D0C168491CC160002B30DD1B4951F8E3
:105530002320002A2BDB016A184C511A04F12004A5
:10554000026202D454F8211002E004EB810189695F
:10555000032909D0C1610568114C2E7956B134F97F
:1055600012404942644207E0C469002CF3DA6FF04C
:105570000201F0E734F91240468B2D880E44468331
:1055800025440183C58284824362026170BD8168C3
:10559000491C816000210183418370BDDC620008E9
:1055A0008400002010B58A88C2840A8882848A8890
:1055B0000B8847F6FF74D21A04EB0243640093FB96
:1055C000F4F30362098849420185428510BD000059
:1055D0002DE9F0410E46044615461F461946143083
:1055E00000F00DFDE783668345F682202583454361
:1055F0004643B4F91600ED13F6134242B4F9140011
:1056000033462946FFF71CFEE060B4F91420B4F9D4
:10561000160033462946FFF713FE01252061257742
:1056200042100146E06846F6D96343433E4E12EB12
:10563000E33300FB06F002EBE0321BD5002A07DA69
:10564000981A594200EB410300EB4202052124E085
:10565000002907DD581A5A4200EB420303EB4102CE
:1056600003211AE0881A00EB4202494202EB41038F
:10567000042112E0002A28DA002907DD881A00EB4D
:105680004202494202EB4103257707E0581A5A4289
:1056900000EB420303EB41020621217743F205515F
:1056A000414300EBE13143F20550504302EBE0305F
:1056B00043F205521D4E5A4303EBE232731C77420C
:1056C0005D0CB14209DC19460AE0981A594200EB18
:1056D000410300EB42020221DFE7B94200DB294629
:1056E000B04201DC184602E0B84200DB2846B24274
:1056F00001DC1A4602E0BA4200DB2A4609B2E18028
:1057000020816281204600F013F82080B4F908104F
:10571000204600F00DF86080B4F90A10204600F031
:1057200007F8A080BDE8F0812791FFFF0080FFFF10
:1057300047F6FF73026A19444A4302F50042111406
:10574000B0F928208A4202DDB0F924007047B0F990
:105750002A208A4202DAB0F926007047808C084479
:1057600000B2704770B5FFF7A9FB094D0446A86861
:10577000261A00F00FF810B1FFF792FE06E06868F5
:1057800040F2A9114843B6EBC00F00D9AC6070BD20
:105790009C00002001480078704700002002002093
:1057A0002DE9F04105460C46FEF730FE0B4A117C10
:1057B000137BC91AC9B2214480290BD8084E641E34
:1057C00008D3116915F8013B01F07F07491CF35517
:1057D0001161F4E7BDE8F041FEF73ABE9C000020FD
:1057E000CE080020704700002DE9F04101220F4E45
:1057F0000C460746D50229463046FCF711F82246EA
:1058000039460B48FDF734FA0A4C50B100222946BC
:105810003046FCF705F801202070BDE8F04100F0AB
:105820000BB800202070BDE8F081000000080140A6
:10583000A807002020020020FFF732BE10B50A485A
:10584000FCF7EAFF00224FF400610848FBF7E8FF8D
:10585000FF2207490448FCF7A5FF064800680168D5
:1058600021F00401016010BDA807002000080140DC
:10587000281B0020F0070020FBF7E6FFFDF772FC75
:10588000FDF702FBFDF7E2FAFDF744FAFDF796FAA1
:10589000FDF766FBFDF7E6FBFDF760FBFDF716FC89
:1058A000FDF73EFCFEF7CEFBFFF7AEFAFEF78EFDEE
:1058B000FCE700000E4900280DDB8211B0F5804F97
:1058C00004DDA1EB4200B0F9FE0301E031F9120062
:1058D000404200B27047424210F5804F04DC4FF462
:1058E0000070A0EBA21000E0901131F91000704799
:1058F000A863000801460148FEF77BBFFC050020B5
:105900000148FEF77FBF0000FC0500202DE9F047AD
:105910008AB00DF1480EDDE918549EE8C017CDE9B4
:105920000754CDE900360DF1080E3C468EE81017FD
:1059300013460A4601460348FFF746F80AB0BDE899
:10594000F0870000FC05002041600A7802774B7860
:10595000134443778B781A4482770A780121914067
:10596000491E018440690047D0E90121B1F90010C6
:1059700001801278914041627047000010B5836841
:10598000447F416AB3F90020A240B0F9204001FBF6
:10599000042190F91C20002903DA494211414942AF
:1059A00000E01141416290F91E20002903DA4942CA
:1059B0001141494200E0114111F5004F01DC074956
:1059C00004E0B1F5004F01DB47F6FF710180007E76
:1059D000002801D00020188010BD00000180FFFFCA
:1059E00010B5029CC0E90112C0E9063410BD30B503
:1059F00081694368B1F90050B3F900109A7869439E
:105A00001141C160C2697AB1B2F90040002C00DADC
:105A10006442B3F904206A439D792A416243DC79E8
:105A200022411144026101E000220261B3F9082021
:105A30008A4202DB52428A4200DD114682681288A5
:105A40000A444280416130BD2DE9FF4F8DB00DF118
:105A50007408044698E8005C0D46DDE92510DDE990
:105A60002327DDE9213904F58F781A9ECDF82C80A3
:105A7000CDE90910CDE904BCCDF818E0CDE9073235
:105A8000DDE91B12CDE90061CDE9022ADDE90F2332
:105A900029462046FEF70EF804F1E00005F18001EA
:105AA0008046FFF77FFD424605F1880104F58670C8
:105AB000279BFFF747FBC4E9317904F58E70C4F8E2
:105AC000CC00289AC4F834210D4A22610021D9F86B
:105AD0001020B8349047002008360590CDE9000624
